:100000000C94F8050C9420060C9420060C94200601
:100010000C9420060C9420060C94EA240C942006E0
:100020000C9420060C9420060C9420060C942006B8
:100030000C9420060C9420060C9420060C942006A8
:100040000C9420060C9420060C9420060C94200698
:100050000C947B240C9420060C9420060C9420060F
:100060000C94A0240C9420060C9420060C942006DA
:100070000C9420060C9431240C9420060C94200639
:100080000C9420060C9420060C94C5240C94562441
:100090000C947E250C9435250C940F250C94200689
:1000A0007F000B1150442B30F030E3019003007FB0
:1000B00000060000CD4A2B30E652355310E3322BB8
:1000C0003211000790152B321100082B342132E930
:1000D000E9993299342B3459205E24590F5E252139
:1000E000362B2811E1042B2259FB2B3221347F00BF
:1000F00093345E26B4CB932893322132357236FF87
:100100002B381100782B36CD9F59005E3611000830
:1001100099363553621100082B3621362B28592089
:100120005E245E2511E1042B22B4CB93281A288C7F
:10013000A035727311EE012B3A213AADE6783553B2
:100140008F8C8090918C08F03A213AE6022B3A8C01
:10015000FE357283FF2B3CCF18597FCF381A0F2BF7
:100160003E1A0F2B30FC3E3572B8213090A9213059
:100170008C0A3572C75920CF38CF3C90A321308CE0
:100180007F3572DF5920CF381A36E6063553DB59F2
:10019000005E3690A32130E6203550A3E65F35534C
:1001A000A32130CF381A36E3065E36E69B3550FC85
:1001B000CF3C90A30006000200E2CD0A2A2A205775
:1001C0006F7A4D6F6E002B3011DF01F62B32CD6050
:1001D000E652355322E3322B3411000790272B349B
:1001E0001100082B362134E9E9993499362B361160
:1001F000E1042B22212A2B2421322B28ECFEE306BA
:100200002B3259052B3421367F005E26B4CB933632
:1002100093282134E601354D48EEFEFF2B38CDAD55
:100220001A32353FAC11E1042B221100085E3299DD
:100230003235537B1100082B322B285E26B4CB932A
:10024000281A288CA035728111EE012B342134AD8F
:10025000E67835539D8C80909F8C08F0342134E6ED
:10026000022B348CFE357291FF2B3ACDD9752B3091
:100270001152062B222130B4F5E60A3550C4E307AB
:10028000E33ACF382130820FE60A3550D3E307E353
:100290003ACF3863FF2B3C110003CF180300F3CD96
:1002A000D37559802B3ECF3A933E213EAD353FD199
:1002B000E62E35500735721D59012B409007E60C8C
:1002C000357228E6012B409007E618357231CF428F
:1002D000900759002B302B44E9E9E9E92B34213E02
:1002E000AD933EE630355068E60A3553542B30E383
:1002F0000A99349035E606821F355668E60735536D
:10030000682B30E310993490352130353FCD213EB4
:10031000E6022B3E21403553842144F0462146E33A
:10032000012B469007357291CF3A21442B46E601C6
:100330002B422142B8443553C72142E3012B42826C
:10034000073572A5CF3A1A323572BA59025E321A9F
:1003500043CF3C1A42CF3C593ACF382132E3042BE9
:10036000322142ADCF3C909159002B409007595C0F
:10037000CF3863FF2B48933211200F2B2A5E24CFF6
:100380003A592ACF382130AD93303572E21100044A
:10039000CF1804007259812B3ECF3A597F5E2BCF84
:1003A000382B321A0F2B301A0FF03EFC3035721EEC
:1003B000213EAD900E213EAD8C0A353F608C7535E7
:1003C00072425920CF382B321A32E6063550405E41
:1003D00032213EE6012B3E9004E6603553041A328A
:1003E0008C96357257595CCF38110004CF18213ED6
:1003F000ADCF38933E9004F03E2B405920CF385972
:100400000F5E2BCF4890FE000200214769676174A0
:10041000726F6E206F66666C696E65003A47696739
:100420006174726F6E204F4B00436D643F00082073
:1004300008006F6666006F6E003A4563686F2000C3
:100440000000A00318605F7DF42B8948AB2A0003ED
:10045000D101C0458A28C4114004841020008808B6
:100460003E3EE127A94EAA569F70B276B73E984EFF
:10047000BF7EBE764001400551114A294445B8422D
:100480003D3A8F3EAA7E313A2E7EB17E907E373E37
:100490009F7CF1473E0A9B7C217C9F7DDF7D3F7ED8
:1004A0004C7E6F3ACD7EB226F0433F7C3E78DF7CB7
:1004B0009B6CFC70B94EF1038220E04708222104B6
:1004C00000412F1D267D29193F196D19F411BEB267
:1004D000077DE1162E898B7CE147CF3D073D26192C
:1004E0004CFE5FB2883CEA15E9232F386E38EF3CAA
:1004F000C924BEE06D25F113E003E4471023FF7F1C
:100500003F00214661696C6564002154696D656F27
:100510007574206572726F7220286E6F206461742A
:10052000612900FF0D09FF5A0AFF761BFF2920777A
:100530001621084A21761E220826224152224126EF
:1005400023A82623905223065D238C5D2377252440
:10055000085B24772E254852250816267436264334
:100560003D26082527304E27035227045527445D92
:1005700027082E28743E28434628434529744629D7
:10058000084E29433E2A745B2A085D2AFF7C2A4BC9
:10059000552B345B2BFF792B083A2C37412C08362E
:1005A0002D344A2D034E2DFF7B2D48412E37492EE9
:1005B000FF712E743D2F48492F034A2F374530488D
:1005C0004530FF7030371631481631FF6931371E1C
:1005D00032481E32FF7232372633482633FF7A33D1
:1005E000372534482534FF6B34372E35482E35FFF8
:1005F0007335373636483636FF7436373D37483D23
:1006000037FF6C37373E38483E38FF753837463944
:10061000484639FF7D3908493A74493A434C3A080B
:10062000413B74413B034C3B43413C3C613C744582
:100630003D0B553D43493E7C613E483A3F434A3F6E
:10064000744E3F8C1540411E40A01E40884540908E
:100650004C40425240481541771C417F32427F2135
:10066000437F23447F24457F2B467F34477F334895
:100670007F43497F3B4A7F424B7F4B4C773A4D4803
:100680004C4D7F314E7F444F7F4D50771551481C64
:10069000517F2D527F1B537F2C547F3C557F2A5610
:1006A000481A57771D577F2258441A597B3559737A
:1006B0001A5A481D5A44355A882E5B943E5B03549F
:1006C0005BB0545B100E5CA00E5C883E5C844E5C9C
:1006D000015D5C02615C94465D884E5D035B5DB0CC
:1006E0005B5D040E5E43365E88465E08545E605471
:1006F0005E50555E083E5F744A5F434E5F030E6076
:10070000883D60904E602054604455600815613704
:100710001C613F32623F21633F23643F24653F2BCE
:10072000663F34673F33683F43693F3B6A3F426BF4
:100730003F4B6C373A6D084C6D3F316E3F446F3F15
:100740004D70371571081C713F2D723F1B733F2C84
:10075000743F3C753F2A76081A77371D773F227819
:10076000041A793B3579331A7A081D7A04357A8868
:10077000257B943D7BA0527B43547B500E7CA0167E
:100780007C88367C415D7C42617CAC617C94457D9B
:1007900088567D435B7DA05D7D410E7E881E7EA0D8
:1007A000257E90557E845B7E425D7EFF667FFF05E1
:1007B000C1FF06C2FF04C3FF0CC4FF03C5FF0BC685
:1007C000FF83C7FF0AC8FF01C9FF09CAFF78CBFF33
:1007D00007CC3A53656E64696E672066726F6D2050
:1007E000454550524F4D003A4578697420776974F9
:1007F00068204374726C2D44003A456E74657269CA
:100800006E67207465726D696E616C206D6F6465D2
:10081000003A2046696C653A20003A46696C657377
:100820003A003A53656E64696E672066726F6D2098
:1008300050524F474D454D003A5374617274696E82
:1008400067204C6F616465722066726F6D206D6504
:100850006E75003A526573657474696E67204769F6
:10086000676174726F6E003A20512F45202020205E
:10087000202053656C6563742F73746172742062F9
:100880007574746F6E003A205A2F58202020202053
:1008900020412F4220627574746F6E003A20572FEA
:1008A000412F532F44202055702F6C6566742F64A0
:1008B0006F776E2F7269676874206172726F77004C
:1008C0003A20542020202020202020456E7465727C
:1008D000207465726D696E616C206D6F6465003A9D
:1008E00020432020202020202020546F67676C6543
:1008F000206563686F206D6F64652028646566619C
:10090000756C74206F666629003A202E3C746578F9
:10091000743E202053656E642074657874206C6981
:100920006E65206173204153434949206B6579739B
:1009300074726F6B6573003A204A202020202020BB
:1009400020204C697374205344003A204B3C6E6164
:100950006D653E20205472616E736665722066720A
:100960006F6D205344003A20552020202020202065
:10097000205472616E73666572206F626A6563747B
:100980002066696C652066726F6D20555342003A8F
:10099000202020202020202020205B48696E743AEF
:1009A0002055736520272E534156452720666F72C8
:1009B00020736176696E672C206E6F742027542730
:1009C0002D6D6F6465215D002020202020202054A3
:1009D00079706520736176656420454550524F4DAE
:1009E0002064617461206261636B20696E746F20A2
:1009F0004769676174726F6E003A2050003A205068
:100A00005B3C6E3E5D2020205472616E73666572A1
:100A1000206F626A6563742066696C652066726F18
:100A20006D2050524F474D454D20736C6F74203CE4
:100A30006E3E003A204D20202020202020205368A8
:100A40006F77206B6579206D617070696E67206FBC
:100A500072206D656E7520696E204C6F61646572E1
:100A60002073637265656E003A204C2020202020A0
:100A70002020205374617274204C6F616465720091
:100A80003A205220202020202020205265736574B7
:100A9000204769676174726F6E003A2048202020F9
:100AA000202020202053686F7720746869732068A5
:100AB000656C70003A2056202020202020202053F2
:100AC000686F7720636F6E66696775726174696FAE
:100AD0006E003A436F6D6D616E64732061726500E4
:100AE0003A547970652027482720666F7220686520
:100AF0006C70002920003A2050003A50524F474D68
:100B0000454D20736C6F74733A00206D617070698D
:100B10006E673D003A2073697A653D003A4545505D
:100B2000524F4D3A003A20436F6E74726F6C6C6591
:100B30007220646174613D3136206C617463683D7C
:100B400031372070756C73653D3230003A204B654B
:100B500079626F61726420636C6F636B3D31352025
:100B6000646174613D3134003A2047696761747291
:100B70006F6E20646174613D3130206C6174636814
:100B80003D392070756C73653D35003A50696E7360
:100B90003A003A426162656C4669736820706C6124
:100BA00074666F726D3D41726475696E6F4E616EF1
:100BB0006F45766572790021556E6B6E6F776E208A
:100BC000636F6D6D616E64202874797065202748AD
:100BD0002720666F722068656C7029007C3C3E5E41
:100BE0002B3D3F2F5B5D3B2C2A225C00F5256D2FB2
:100BF00011241FBECFEFCDBFDFE3DEBF2DE2A4E1A6
:100C0000B8E201C01D92A03BB207E1F718E2A0E0F4
:100C1000B8E2EAE0FBE602C005900D92A431B1070C
:100C2000D9F715E0C7EFD5E004C02197FE010E9477
:100C30008C32C63FD107C9F70E9491260C94C73465
:100C40000C940000E091102AF091112ACF01019636
:100C50008093102A9093112A849190E00895AF9286
:100C6000BF92CF92DF92EF92FF920F931F93CF9399
:100C7000DF936C017B018B01040F151FEB015E01FB
:100C8000AE18BF08C017D10759F06991D601ED9190
:100C9000FC910190F081E02DC6010995892B79F72F
:100CA000C501DF91CF911F910F91FF90EF90DF90E1
:100CB000CF90BF90AF900895EF92FF920F931F9344
:100CC000CF93DF93C82FD0E0A09695E0CC0FDD1F27
:100CD0009A95E1F7E984F82EFF0CFF0CFF0C01E078
:100CE00010E08E2D8023A9F02F2D210F30E0220F50
:100CF000331FF901E555F74D80819181892B49F02A
:100D00000190F081E02D255B374DD9018D919C91AB
:100D100009951F5F000F183021F7E986DF91CF9109
:100D20001F910F91FF90EF900895FC015489458920
:100D3000252F30E0842F90E0821B930B541710F086
:100D4000CF96089501970895FC0192898389981799
:100D500061F0A389AE0FBF2FB11D59968C91938975
:100D60009F5F9F73938B90E008958FEF9FEF08959F
:100D7000FC0192898389981731F08389E80FF11D6E
:100D8000818D90E008958FEF9FEF0895FC01928987
:100D90002389892F90E0805C9F4F821B91098F737C
:100DA00099270895CF93DF93EC01E881F9810680BC
:100DB000F781E02D0995EC85FD8586818F7386830B
:100DC000EC85FD8585818F7585838B898A8B198A52
:100DD000DF91CF910895CF93DF93FC0194898589AA
:100DE000C485D585981306C08D818F7D8D83DF9155
:100DF000CF910895A589AE0FBF2FB11DA75ABF4F40
:100E00002C91858990E001968F739927858B80E4DA
:100E10008C83A485B58512962C9394898589981323
:100E2000E6CFA485B58515968C9115978F7D15967F
:100E30008C9387898823D9F2808D80931301178A38
:100E4000D6CFDC011C96ED91FC910FB607FE03C0D6
:100E5000258125FD04C0248125FD0C94EB06089511
:100E6000EF92FF920F931F93CF93DF93EC0181E0FA
:100E7000898B9C898D8998131CC0AC85BD8514967F
:100E80008C91149785FF15C012966C93AC85BD8527
:100E900080E414968C93EC85FD8585818F7D858318
:100EA00081E090E0DF91CF911F910F91FF90EF9043
:100EB00008958091110180FF08C080911301888FEF
:100EC0008E898093130181E08F8BF62E0C8910E0C0
:100ED0000F5F1F4F0F731127E02E8D898E1104C0F5
:100EE000CE010E942107F9CFEC89EC0FFD2FF11DF7
:100EF000E75AFF4FF0820C8BEC85FD85858180627F
:100F0000CECF0F931F93CF93DF938C01D0E0C0E03F
:100F1000F801EC0FFD1F6491662341F08AE39CE227
:100F20000E943007892B11F02196F2CFCE01DF917C
:100F3000CF911F910F910895682F8AE39CE20C9442
:100F40003007CF93DF93FC0121892223C9F0EC0104
:100F50008091110180FF08C080911301808F8689E4
:100F60008093130181E0878BEC85FD85858185FD6C
:100F700003C0848186FD04C0CE010E942107F4CF06
:100F8000DF91CF91089581E00895CF93DF9390E0B2
:100F9000FC01E85FF54520812F3F69F0FC01EC5230
:100FA000F645E08130E2E39FF0011124FC5F6130FF
:100FB000710521F42183DF91CF91089582519645E7
:100FC000EC01A881AF3F69F0CF014096A80FB92F7F
:100FD000B11D9FB7F89422838C9188608C939FBF3A
:100FE000EACFB0E0A0E0F5CF8B3210F40C94C50747
:100FF0000895282F30E0F901E654F645E081EE230C
:1010000009F1E13021F0F0F0E63098F008954091D8
:10101000010A22513645F90120812C5F81E090E0E0
:1010200001C0880F2A95EAF7809584238093010AEE
:10103000089580E1E89FF0011124E05AF54F818185
:101040008F7E81830895FF920F931F93CF93DF9339
:10105000082F10E0F801E85FF545F0809FEFF916E2
:10106000A1F0EB018B3210F40E94F907F801EC5269
:10107000F645E08180E2E89FF0011124FC5F808169
:101080008F2159F0CD2B39F4F682DF91CF911F914A
:101090000F91FF900895F582F8CFD801A251B6457F
:1010A0008C91309771F08F3F61F07096E80FF11DD1
:1010B0009FB7F8948081CD2B39F4877F80839FBFC1
:1010C000E4CFF0E0E0E0F4CF8860F8CF0F931F9317
:1010D000CF93082F10E0F801E85FF545C081CF3FBE
:1010E000A9F00E94F907F801EC52F645E08180E290
:1010F000E89FF0011124FC5F8085C82381E090E027
:1011000009F480E0CF911F910F91089580E090E065
:10111000F9CF8B3210F40C9423080895CF92DF920C
:10112000EF92FF920F931F93CF93DF93EC016A012D
:101130007B01022F8989882339F0E881F9810288AF
:10114000F389E02DCE01099598898091E205892BDC
:101150008093E2051FB7F89460E070E281EA97E0BF
:10116000A70196010E941A3269017A018FEFC81A0D
:10117000D80AE80AF80AF694E794D794C794EC855D
:10118000FD8586818D7F8683EC85FD8586818683BE
:10119000198AA09123110A2E000CBB0BA7019601FE
:1011A0000E945B3220E034E040E050E00E943C329C
:1011B000EC85FD85C20ED31EE41EF51EC086D186C9
:1011C000EC85FD850783EC85FD858681806C8683B3
:1011D000EC85FD858581806885838E8562E070E081
:1011E0000E94F4078F8561E070E00E9489088F8576
:1011F00061E070E00E94F4071FBFDF91CF911F9163
:101200000F91FF90EF90DF90CF900895CF93DF93F1
:101210008FB7F89420913F28309140284091412881
:1012200050914228E091BA0A9091B60A90FF06C008
:101230002F5F3F4F4F4F5F4FE091BA0A8FBFA09192
:101240004928B0914A28C0914728D09148280E9447
:10125000D730EC9F9001ED9F300D1124620F731F6A
:10126000811D911DDF91CF9108958F929F92AF9232
:10127000BF92CF92DF92EF92FF924B015C010E94EE
:1012800006096B017C01A8EEB3E0A50194010E9460
:10129000D730C60ED71EE81EF91EC616D706E806BA
:1012A000F90618F40E940609F8CF0E9406096C1589
:1012B0007D058E059F05C8F3FF90EF90DF90CF90DE
:1012C000BF90AF909F908F9008952FB7F894609142
:1012D0003B2870913C2880913D2890913E282FBF5B
:1012E0000895FC01DB0112968D919C9113978283E6
:1012F000938380E59AEA8083918314968C91149766
:10130000848315968C911597858316964D915D91E2
:101310006D917C91199746835783608771871A96E0
:101320004D915D916D917C911D97428753876487A4
:1013300075871E964D915D916D917C915197468771
:101340005787608B718B52968C915297828B5396F4
:101350004D915D916D917C915697438B548B658B2C
:10136000768B57964D915D916D917C915A97478BF5
:10137000508F618F728F5B968D919C91838F948F2C
:1013800008950895DC015996ED91FC91309721F074
:1013900081E09581911101C080E00895DC015996AA
:1013A000ED91FC913097B9F083899489A589B6892C
:1013B0004285538564857585841B950BA60BB70BF9
:1013C000811520E89207A105B10538F08FEF9FE75E
:1013D000A0E0B0E0089590E080E00895DC01599627
:1013E0008D919C91009739F0DC01ED91FC91048086
:1013F000F581E02D099490E080E00895CF93DF938C
:101400001F92CDB7DEB76983DC01ED91FC910280BC
:10141000F381E02D41E050E0BE016F5F7F4F099501
:101420000F90DF91CF9108950895EF92FF920F935F
:101430001F93CF93DF937C01EB018B01040F151FEA
:10144000C017D10759F0D701ED91FC910480F581C7
:10145000E02D6881C70109958993F2CFDF91CF9183
:101460001F910F91FF90EF9008950F931F93CF93CB
:10147000DF93EC018B018091C008E881F981048041
:10148000F581E02D86FD13C0612FCE010995182F3F
:10149000E881F9810480F581E02D602FCE01099566
:1014A000082FC801DF91CF911F910F910895CE01B0
:1014B0000995082FE881F9810480F581E02D612FDD
:1014C000CE010995182FEDCF00006093C4088091DC
:1014D000C30887FFFCCF8091C40808956FEF86E2B0
:1014E0009DE20C94640A0F931F93CF93DF93EC015A
:1014F0000E9465098B010E946E0A8F3F69F00E946D
:101500006509601B710B6C177D07A8F380E0DF9104
:10151000CF911F910F91089581E0F9CF682F86E256
:101520009DE20C94640A8F929F92AF92BF92CF92E9
:10153000DF92EF92FF920F931F93CF93DF93FC0103
:101540008085882319F081FF0EC07894DF91CF91B8
:101550001F910F91FF90EF90DF90CF90BF90AF90D1
:101560009F908F90089580FFF1CF82849384A4840C
:10157000B584C12CD12C760110E09401A501B601EF
:10158000C701A0E00E94803299F1217030E040E074
:1015900050E060E070E080E090E00E948032D9F09E
:1015A000D0E0C0E0103370F4C12FC695C695C69543
:1015B00080E2C89FE0011124C05FDB4F812F87705C
:1015C000C80FD11DCF01810F911DDC0152968C9166
:1015D0009881892B88839401A501B601C70101E098
:1015E0000E94653249015A016B017C011F5FC5CF22
:1015F00086849784A088B188C12CD12C760110E212
:101600009401A501B601C701A0E00E94803209F44F
:101610009DCF217030E040E050E060E070E080E07D
:1016200090E00E948032D9F0D0E0C0E0103370F436
:10163000C12FC695C695C695B0E2CB9FE001112497
:10164000C05FDB4F812F8770C80FD11DCF01810F85
:10165000911DDC0152968C919881892B888394018D
:10166000A501B601C70101E00E94653249015A0196
:101670006B017C011F5FC4CF61E070E0FC018481DD
:101680000E94890880913428882331F010923428F0
:1016900086E29DE20C94930A0895FC016F3F710568
:1016A00081F1808581FD2DC0603271055CF581E09E
:1016B00090E002C0880F991F6A95E2F78095909597
:1016C000092E000CAA0BBB0B4285538564857585DA
:1016D00084239523A623B72382879387A487B5877E
:1016E00082859385A485B585892B8A2B8B2B49F41C
:1016F00086859785A089B189892B8A2B8B2B09F444
:10170000108608956052710981E090E002C0880F50
:10171000991F6A95E2F780959095092E000CAA0B07
:10172000BB0B468557856089718984239523A62341
:10173000B72386879787A08BB18BD2CFFC016F3FF1
:101740007105E9F1603371051CF082E0808708952E
:1017500080858160808760327105C4F481E090E00B
:1017600002C0880F991F6A95E2F7092E000CAA0B98
:10177000BB0B4285538564857585842B952BA62BE1
:10178000B72B82879387A487B58708956052710924
:1017900081E090E002C0880F991F6A95E2F7092E58
:1017A000000CAA0BBB0B4685578560897189842B79
:1017B000952BA62BB72B86879787A08BB18B089587
:1017C000E0ECF8E020812E7F2083FC011782089551
:1017D000E0ECF8E082818E7F82830895E0ECF8E00F
:1017E000828181608283089570E060E08FE00E94D2
:1017F000230861E070E08FE00C94C50762E070E0C0
:101800008FE00E94C5078BE080931A280895CF933C
:10181000DF938EE00E946608EC010E94650920912A
:10182000182830911928AB01421B530B4630510543
:1018300020F420911A282B3040F021E030E0209352
:1018400016283093172810921A286093182870933E
:101850001928DD2730911A28CE01032E02C0880FE7
:10186000991F0A94E2F76091162870911728862B29
:10187000972B8C279D2780931628909317283A3012
:10188000A1F4E0912C28F0E0E55EF74DAC01559510
:101890004795408320912C282F5F2F7040912B2853
:1018A000421719F080FD20932C283F5F30931A28AF
:1018B000DF91CF9108951F93CF93DF93182F61E0AD
:1018C00070E00E948908C3ECD0E0CE010197F1F7E7
:1018D00070E060E0812F0E9489082197F1F7DF9185
:1018E000CF911F91089540910C29642F70E030E052
:1018F00020E086B190E08095909586239723892BF0
:1019000041F021503109A9F780E0089521503109B3
:10191000D9F386B18423D1F750910B29652F70E05C
:1019200096B19523E9F796B1942379F726B130E083
:101930002095309526233723232BC1F78F5FF0CFD7
:10194000CF93462F4150550B91E001C0990F4A9516
:10195000EAF7A091372ACA2FC095B0910B29409180
:101960000C2950E070E0EB2FF0E0282F292319F12B
:1019700025B12A2B25B926B12B23E9F726B130E072
:101980002095309524233523232B09F07F5F26B142
:1019900030E0209530952E233F23232BC1F79695D9
:1019A00021F79091382A890F8093382A81E06713B4
:1019B00080E0CF91089525B12C23DCCF40910C29F4
:1019C000642F70E026B130E0209530952623372330
:1019D000232BC1F79091372A25B187FF16C0922B90
:1019E00095B996B19423E9F740910B2996B19423C8
:1019F000E9F750E026B130E02095309524233523D7
:101A0000232BC1F767E00C94A00C90959223E8CFAC
:101A1000FF920F931F93CF93DF93F82ED62FC72FEC
:101A20008A018CE40E94DE0C66E08F2D0E94A00CDF
:101A300068E08D2F0E94A00C68E08C2F0E94A00C03
:101A4000E801045C1F4F68E089910E94A00CC01758
:101A5000D107C9F7C091382AC19568E08C2F0E9440
:101A6000A00CC093382A85B19091372A892B85B96B
:101A7000DF91CF911F910F91FF90089578940C946E
:101A8000FE0B0E94F40BF8940895CF930E94410D31
:101A90000E94730CC82F0E943E0D80911528982F2C
:101AA000909520911428922390931428C73029F000
:101AB000C930B1F4982B90931428880F49F0809383
:101AC00015288091152890E091958195910906C07F
:101AD00081E0809315288091142890E0CF9108959B
:101AE00081E0EDCFEF92FF920F931F93CF93DF939F
:101AF000D82F7B010E94410D10E000E00E151F055C
:101B00009CF48D2F0E94DE0CC82F81110AC00E9408
:101B10003E0D8C2FDF91CF911F910F91FF90EF9091
:101B200008950F5F1F4FEACF0E943E0D85B190913F
:101B3000372A892B85B9C1E0ECCFCF92DF92EF92A3
:101B4000FF920F931F93CF93DF936C017B0187E686
:101B50008093382A0E94410DD0E0C0E0CE15DF0509
:101B6000A4F487010C1B1D0B0C33110514F00CE3BE
:101B700010E0AE01425F564DBE016C0D7D1D802F01
:101B80000E94080DC00FD11FE9CF0E943E0D909119
:101B90000C2986B18923E9F7DF91CF911F910F912D
:101BA000FF90EF90DF90CF900895AF92BF92CF92C9
:101BB000DF92EF92FF920F931F93CF93DF937C01FD
:101BC0006B010E94730C81110EC082E095E0DF91E1
:101BD000CF911F910F91FF90EF90DF90CF90BF902A
:101BE000AF900C948107C114D10421F083E090E000
:101BF000F6010995F7010995EC01F7010995DC2F2C
:101C0000CC278C010C0F1D1FF7010995EC01892BC6
:101C100011F4C0E0D1E0C114D10419F0CE01F601F5
:101C200009958EE0A82E89E2B82EC5018E50994202
:101C30008C179D0734F4F7010995F50181935F0135
:101C4000F4CFCE01800F911D8130914098F5BE01F7
:101C5000C8010E949D0DC114D10421F083E090E0E1
:101C6000F6010995F7010995EC01892B31F6F70189
:101C70000995C82FF701099560E07C2FEC01C60F8C
:101C8000D71F2097B9F00E94410D87E68093382A2C
:101C90004EEF59E2BE0180E00E94080DDF91CF9126
:101CA0001F910F91FF90EF90DF90CF90BF90AF907A
:101CB0000C943E0DDF91CF911F910F91FF90EF900B
:101CC000DF90CF90BF90AF9008955F926F927F9218
:101CD0008F929F92AF92BF92CF92DF92EF92FF923C
:101CE0000F931F93CF93DF937C016B013C018AEF2D
:101CF000781A870160E2962E7EE2872EA12CB12C05
:101D0000D601AA0DB11DEC91CB2DD0E0E1110EC092
:101D1000EEE0F9E280E0B81609F455C0908199210F
:101D200009F44FC09FE391938F5FF5CFEE0FFF0B48
:101D3000E050FC4F459154919A01E1E0EB0DF0E049
:101D400082E08B0D90E063E06B0D70E054E0552E67
:101D5000B50CC25FD64DE25FF64D825F964D625F75
:101D6000764D188237FD14C0432F45954E7340833E
:101D7000A901E4E055954795EA95E1F74E73FC011A
:101D80004083220F331F2E73FB012083A394B8CF0F
:101D9000532F559555955F71508355E0359527958F
:101DA0005A95E1F72F71FC0120834F71FB014083AD
:101DB0008C918A3659F7EB2DF0E0E35FF64D808287
:101DC000E5CF90E2B0CFBE01C8010E949D0D1395F2
:101DD00096946016710609F091CFCE018E0D9F1D6D
:101DE000DF91CF911F910F91FF90EF90DF90CF90F7
:101DF000BF90AF909F908F907F906F905F9008956D
:101E0000CF93DF93FB0122813381DC0112962D9366
:101E10003C931397448155816681778114964D9345
:101E20005D936D937C93179740855185628573858B
:101E300018964D935D936D937C931B971C96EF01C1
:101E40002C969C01275E3F4F49914D93A217B307F3
:101E5000D9F7218D328DFC01218F328FDF91CF9107
:101E60000895CF930E94410D80E00E94DE0CC82FA0
:101E700085B19091372A892B85B90E943E0D8C2F10
:101E8000CF910895DC01ED91FC910088F189E02D5E
:101E900023E030E00994FC0101900020E9F731973C
:101EA000AF01481B590BBC018AE39CE20C942F063E
:101EB00090910D29992391F08D3031F08F3741F0B9
:101EC0008A3051F46D3051F088E89AEA0C944B0F47
:101ED0008EE294E00C9481070C949C070895CF93B4
:101EE000DF930E948107EC0188E89AEA0E944B0F79
:101EF0008C0F9D1FDF91CF910895CF92DF92EF92CB
:101F0000FF920E9465096B017C0128E8C20E23E163
:101F1000D21EE11CF11C8AE39CE20E94C606892BBA
:101F200039F40E9465096C157D058E059F0598F3AF
:101F30008AE39CE20E94A4067C0197FF04C08AE029
:101F400095E00E946F0FC701FF90EF90DF90CF9058
:101F500008950C947D0FCF93C82F817080930D2925
:101F600089E394E00E94810782E394E0CC2311F09E
:101F700086E394E0CF910C946F0F4F925F926F9233
:101F80007F928F929F92AF92BF92CF92DF92EF9209
:101F9000FF920F931F93CF93DF93CDB7DEB7649774
:101FA000CDBFDEBF0E9465096B017C0125E5C20E35
:101FB000D11CE11CF11C8E010F5F1F4F80E1D80185
:101FC0001D928A95E9F70E9465096C157D058E05BD
:101FD0009F0528F586B190910C29982330E020E0E8
:101FE00011F022E030E090910B298923E1E0F0E04C
:101FF00011F4F0E0E0E0E20FF31FEE0FFF1FEE0F31
:10200000FF1FE00FF11F80819181A281B3810196B2
:10201000A11DB11D80839183A283B383D4CFC980D6
:10202000DA80EB80FC808D809E80AF80B8848C0C41
:102030009D1CAE1CBF1C89859A85AB85BC85898B90
:102040009A8BAB8BBC8BBC01CD01680D791D8A1DB1
:102050009B1D0D851E852F853889600F711F821F7E
:10206000931F0E949E2F2DEC3CEC4CEC5DE30E94F4
:1020700023312B013C01C501B4010E949E2F4B016D
:102080005C0120E030E040E051E4C301B2010E9475
:10209000FD2F20E030E442E054E40E948F319B01A8
:1020A000AC01C501B4010E948F314B015C0123E3F7
:1020B00033E343E75FE30E94013287FD5AC020E02B
:1020C00030E040EA5FE3C501B4010E94972F181683
:1020D0000CF44FC069897A898B899C896C0D7D1DB0
:1020E0008E1D9F1D0E949E2F6B017C0120E030E021
:1020F00040EC52E4C301B2010E94FD2F20E030E029
:1021000048E454E40E948F319B01AC01C701B60141
:102110000E948F316B017C0126E636E646E65FE3DE
:102120000E94013287FD25C02DEC3CEC4CE85FE3BA
:10213000C701B6010E94972F1816DCF08CE194E0DD
:102140000E946F0F89E294E06496CDBFDEBFDF91FD
:10215000CF911F910F91FF90EF90DF90CF90BF90A4
:10216000AF909F908F907F906F905F904F900C9466
:102170006F0F8AE094E0E4CF8F929F92AF92BF926C
:102180000F931F93CF93DF93CDB7DEB7A197CDBF4A
:10219000DEBF19A2423008F44AE08E010F5D1F4FE6
:1021A000842E912CB12CA12CA50194010E941A32ED
:1021B000E62FB901CA01EA30DCF4E05DD801EE9304
:1021C0008D01232B242B252B79F790E080E01097AD
:1021D00019F0CD010E944B0FA196CDBFDEBFDF915C
:1021E000CF911F910F91BF90AF909F908F900895C6
:1021F000E95CE4CFCF92DF92EF92FF926C01990FEE
:10220000EE08FF084AE0C701B601F7FE0BC08DE2F9
:102210000E949C0766277727CB016C197D098E09E0
:102220009F094AE00E94BC1080E095E0FF90EF908B
:10223000DF90CF900C946F0FCF93DF93D0E0C0E08E
:10224000009719F00E944B0FEC0188E89AEA0E946F
:102250004B0F8C0F9D1FDF91CF910895FC012481BE
:102260003581FB014481558124173507A0F0FC011D
:1022700080819181009779F0FB0160817181611506
:10228000710549F0241B350B820F931F0E949D346A
:1022900021E0892B09F020E0822F08951F93CF932E
:1022A000DF93182FEB0190E080E00E94BB30863076
:1022B00008F080E041E050E002C0440F551F8A95CD
:1022C000E2F790E080E0FC01ED5DFA4FE4912E2F03
:1022D00030E02095309524233523232BA1F4E07C96
:1022E000E03C11F0E1130FC0FC01EC5DFA4FE4910A
:1022F000EC171D0641F48B5D9A4FFC018491DF9130
:10230000CF911F91089503968F3AF2E09F07D9F677
:1023100080E0F5CF90E080E00E94BB30863008F08E
:1023200080E023E0829FC0011124885596450895DE
:10233000EF92FF920F931F93CF93DF93CDB7DEB74A
:102340006397CDBFDEBF83E1EBEBFAEADE011196C6
:1023500001900D928A95E1F7BE016F5F7F4F80E09B
:1023600098E00E94650E88279A5F1A8622E2E22E84
:102370002AEAF22E12E300E208871F83BE016F5F94
:102380007F4F0E94650EF701628173810E94650E86
:1023900088279A5F1F5FF4E0EF0EF11C163361F798
:1023A0006BE87AEA0E94650E8C010E948A11BC01DA
:1023B000C8010E94650E64E97AEA0E94650E8827CA
:1023C00060EB7AEA9A5F0E94650E08EA19EA62E910
:1023D0007AEA0E94650EB8010E94650E0D5F1F4FDC
:1023E00029EA0A3B120799F76396CDBFDEBFDF915A
:1023F000CF911F910F91FF90EF9008958F929F9230
:10240000AF92BF92EF92FF920F931F93CF93DF9300
:102410000E9465094B01CBE8D1E090912C28809176
:102420002B28981799F1E0912B28F0E0E55EF74D05
:10243000808190912B289F5F9F7090932B28682F0D
:1024400070E061157105C1F58091322890913328B3
:10245000881A990A80913028909131288815990519
:1024600008F510922F2849EE841643E0940680F474
:1024700080912D288095DF91CF911F910F91FF9032
:10248000EF90BF90AF909F908F90089580E0D7CF4E
:1024900080912D2890912E28882780932D28909325
:1024A0002E2805C089EE881683E0980688F780916B
:1024B0002F288111E0CFDCCF803E09F454C0803F4B
:1024C00009F45BC08A3A09F05EC00E94F40BCE01A9
:1024D0000197F1F770E060E08EE00E94230861E070
:1024E00070E08EE00E94C5070E94FE0B0AE010E03B
:1024F00098EEE92E95E0F92E8FE00E946608892B70
:10250000D9F38FE00E946608892BD9F7F694E794F7
:1025100062E070E0E0FC07C070E060E08EE00E94E6
:10252000230861E070E08EE00E94C50701501109A8
:1025300019F762E070E08EE00E94C5078EE00E940D
:102540006608892BD9F78FE00E946608892BD9F796
:102550008FE00E946608892BD9F38EE00E946608FE
:10256000892BB1F35ACF80912D2890912E28906815
:1025700080932D2890932E2850CF80912D289091D4
:102580002E289064F5CF00912D2810912E2817FD4C
:10259000706E6431710509F4EAC008F07DC06131E4
:1025A000710509F4EAC06231710509F4E3C06037CE
:1025B00040EE740709F408C108F0A1C06A3540EE86
:1025C000740709F40EC108F089C06636710509F474
:1025D000DDC0CFE26A3440EE740759F17801EE2491
:1025E0008CE0F82215FD06C0E114F10409F4DCC00A
:1025F00014FFDAC080E80E944E11C82FEF28C9F0FE
:10260000803209F4E9C08F3309F4EDC08FE38C0FF9
:102610008C3008F0D5C06C2F6F7009F4D1C0002742
:102620001073012B09F4C9C0615090E080E00E9452
:10263000C33080912F288C1721F0809232289092FD
:10264000332820912D2830912E2836FFC0932F2833
:1026500083E290E0809330289093312880912F2856
:102660008F3EA1F4409132285091332884EF91E0BD
:10267000841B950B880D991D843C49E0940710F448
:1026800084EC99E08093302890933128222720937E
:102690002D2830932E2865C0613140EE740709F46F
:1026A0006FC0643180EE780739F06935710509F043
:1026B0007ECF80E092E002C080E098E016FF63C029
:1026C000809590958023912380932D2890932E2898
:1026D00080912D2890912E289F734ACF6B3680EEE3
:1026E000780709F475C06C3640EE740709F46CC0C5
:1026F000693680EE780709F071CF80E821C0643731
:1027000040EE740709F462C058F4613740EE740774
:10271000E9F1623780EE780709F060CF84E010C0FD
:102720006A3740EE740709F44DC06D3780EE7807C4
:1027300009F450C088E0653740EE740709F04ECFC9
:10274000809232289092332890E016FF47C08095FF
:1027500090958023912380932D2890932E2810927A
:102760002F2880912D2890912E289F7396CE80E05F
:1027700094E0A4CF80E091E0A1CF80E090E19ECFF3
:1027800080E090E29BCF802B912B9ECFC8018827C1
:102790009C70892B09F4B1CFC80188279073892BCD
:1027A00009F4ABCFCFEE45CFC80188279370892BB2
:1027B00011F080E420CF80E01ECF80E4C82739CF1D
:1027C000CF7137CF80E2BCCF80E4BACF81E0B8CF01
:1027D00082E0B6CF80E1B4CF8FEFB2CF802B912BC8
:1027E000BACFCAE026CFCFE724CF0F931F93CF9362
:1027F000DF93EC0188819981009759F02A813B8110
:102800002617370730F081E0DF91CF911F910F91AC
:1028100008958B016F5F7F4F0E94B733009759F087
:10282000888399830A831B832C813D81232B59F74D
:10283000FC011082E8CF80E0E7CFCF93DF93EC017B
:1028400088819981009711F00E942E331882198295
:102850001C821D821A821B82DF91CF910895CF9234
:10286000DF92EF92FF920F931F93CF93DF93EC01D0
:102870006B01FB0101900020E9F731978F01061BE6
:10288000170BD1F0EC80FD80E00EF11EB7010E9425
:10289000F5138823D9F0288139818C819D81A80185
:1028A000B601820F931F0E948934EC82FD82E88179
:1028B000F981EE0DFF1D1082CE01DF91CF911F91A6
:1028C0000F91FF90EF90DF90CF900895CE010E947E
:1028D0001D14F2CFEF92FF920F931F93CF93DF93CC
:1028E000EC017B018A01BA010E94F51381110BC032
:1028F000CE010E941D14CE01DF91CF911F910F9147
:10290000FF90EF9008950C831D83A801B701888183
:1029100099810E948934E881F9818C819D81E80F39
:10292000F91F1082E8CFCF93DF93EC01FB018617EC
:10293000970749F0608171816115710541F044810B
:1029400055810E946A14CE01DF91CF9108950E94B3
:102950001D14F9CFFC01108211821282138214829D
:1029600015820C949314FC0110821182128213823E
:10297000148215826115710551F0FB010190002050
:10298000E9F73197AF01461B570B0C946A14089571
:10299000FC0180819181009711F00C942E330895F1
:1029A0000C942E33EF92FF920F931F93CF93DF93EC
:1029B000EC017B018A011A821B8288EE93E0A0E081
:1029C000B0E08C839D83AE83BF838AE79AEA8883D5
:1029D00099838DE190E00E949232898F9A8F0097BF
:1029E00079F02DE1F701DC0101900D922A95E1F7D4
:1029F0004CE050E0B801CE010C960E94AD34188E28
:102A0000DF91CF911F910F91FF90EF900895CF929A
:102A1000DF92EF92FF920F93FC01C12CB9E0DB2E05
:102A2000BDE3EB2EF12CC082D182E282F3821482CC
:102A3000158281E090E086839783C0900028D09033
:102A40000128E0900228F0900328F694E794D794A8
:102A5000C79490E04C155D056E057F0540F4F69433
:102A6000E794D794C7949F5F9630A1F797E00460EE
:102A70000187892F8095A82FA170B0E084E0AA0F6C
:102A8000BB1F8A95E1F791629A2B80E0232B09F412
:102A900080E4982B90870F91FF90EF90DF90CF907C
:102AA00008950F931F93CF93DF93CDB7DEB72A9787
:102AB000CDBFDEBF8C01FC01878181110CC0108667
:102AC0001186128613861486158616861786108A36
:102AD000118A81E087838091E305F8019681892B33
:102AE0008093E30561E070E083810E94F40761E078
:102AF00070E0F80184810E94F4078091C10884602D
:102B00008093C1088091C00881628093C008409181
:102B1000682D5091692D60916A2D70916B2D0091F7
:102B20006C2D20916E2D30916F2DCE0101960E945B
:102B3000071599858A859093C0088093C1082A96C5
:102B4000CDBFDEBFDF91CF911F910F9108955F92AE
:102B50006F927F928F929F92AF92BF92CF92DF92AD
:102B6000EF92FF920F931F93CF93DF93CDB7DEB712
:102B70006297CDBFDEBF3C010B871C872D873E8748
:102B8000042F4F87588B698B7A8B29893A894B851B
:102B90005C856D857E85CE0101960E94071559845E
:102BA0001A85D30118968C91882319F081FF18C0DB
:102BB000F8945092C0081093C1086296CDBFDEBF52
:102BC000DF91CF911F910F91FF90EF90DF90CF9009
:102BD000BF90AF909F908F907F906F905F9008957F
:102BE00080FFE7CFF30182849384A484B584C12C51
:102BF000D12C7601B0E09401A501B601C701A0E097
:102C00000E948032A9F1217030E040E050E060E0A5
:102C100070E080E090E00E948032E9F090E080E097
:102C2000B03370F48B2F869586958695F0E28F9F52
:102C3000C0011124805F9B4F2B2F2770820F911DA5
:102C4000FC01408193012B0F311DF901428BFC01E6
:102C50002081287F20839401A501B601C70101E0EE
:102C60000E94653249015A016B017C01BF5FC3CFED
:102C7000D3011E968D909D90AD90BC905197C12C24
:102C8000D12C7601B0E29401A501B601C701A0E004
:102C90000E94803209F48DCF217030E040E050E096
:102CA00060E070E080E090E00E948032E9F090E027
:102CB00080E0B03370F48B2F869586958695E0E2A0
:102CC0008E9FC0011124805F9B4F2B2F2770820F96
:102CD000911DFC01408193012B0F311DF901428BA5
:102CE000FC012081287F20839401A501B601C70142
:102CF00001E00E94653249015A016B017C01BF5F0E
:102D0000C2CF0F931F93CF93DF93EC0180913428B0
:102D1000811117C081E0809334280091D52C109147
:102D2000D62C2091D72C3091D82C4091D92C509171
:102D3000DA2C6091DB2C7091DC2C86E29DE20E9403
:102D4000A71570E060E08C81DF91CF911F910F910A
:102D50000C9489088F929F92AF92BF92FF920F932B
:102D60001F93CF93DF93EC01F62E49015A018E8118
:102D7000882389F08F8198859C012F5F3F4F2F8397
:102D800038878230924018F40E946E0AF3CFCE0149
:102D90000E943C0B1E82CE010E9481168CE291E0C3
:102DA0000E94730A8F2D80640E948E0A08E110E051
:102DB000D501C401002E04C0B695A79597958795B7
:102DC0000A94D2F70E948E0A08501109083F8FEF2B
:102DD000180771F785E9FF2021F028E087E8F21253
:102DE0008FEF0E948E0A10E00E946E0A8A8787FF8A
:102DF00004C01F3F11F01F5FF7CFDF91CF911F91EC
:102E00000F91FF90BF90AF909F908F900895AF92D9
:102E1000BF92CF92DF92EF92FF920F931F93CF93C7
:102E2000DF93EC016901C801820F931F813092404A
:102E300050F58E81882379F088819981AA81BB81A0
:102E400084179507A607B70731F48F819885C816B0
:102E5000D90608F042C0488359836A837B838B85F7
:102E6000833039F089E0440F551F661F771F8A951C
:102E7000D1F79A01AB0161E1CE010E94AA16882325
:102E800089F083E08D83CE010E943C0B80E0DF91CE
:102E9000CF911F910F91FF90EF90DF90CF90BF9057
:102EA000AF9008950E9465095B010E946E0A8A87AF
:102EB0008F3F69F40E9465096A197B096D32714080
:102EC000A0F38FE08D83CE010E943C0BDCCF8E3FC0
:102ED00089F41F82188681E08E838F8198858C15F6
:102EE0009D0550F40E946E0A8F81988501968F830C
:102EF0009887F3CF8DE0E6CF6701E00EF11E0E94C8
:102F00006E0AF60181936F01EE15FF05C1F78F81FF
:102F10009885080F191F0F8318878985882319F052
:102F200001151240A0F08E81882389F08F81988549
:102F30009C012F5F3F4F2F8338878230924018F4D7
:102F40000E946E0AF3CFCE010E943C0B1E8281E0EC
:102F50009ECFCF92DF92EF92FF920F93CF93DF93AA
:102F6000EC01690182E1411551056105710599F096
:102F70008B85833039F089E0440F551F661F771F1A
:102F80008A95D1F79A01AB0168E1CE010E94AA1699
:102F9000882319F084E08D832DC08EEF0E948E0A65
:102FA00076018EEFD81AF70181917F010E948E0A77
:102FB000EC14FD04C1F78FEF0E948E0A8FEF0E9480
:102FC0008E0A0E946E0A8A878F71853071F4011112
:102FD00016C0CE010E943C0B81E0DF91CF910F9192
:102FE000FF90EF90DF90CF90089581E18D83CE0127
:102FF0000E943C0BCE010E943C0B80E0EECF88E5A6
:1030000092E00E94730A811102C085E1C4CF20E0E2
:1030100030E0A9016DE0CE010E94AA16882311F0CC
:1030200084E1B9CF0E946E0A8111FACFD2CF0F93FB
:103030004091352850913628609137287091382872
:10304000411551056105710599F0082F2AE33AE20F
:103050008091352A9091362A0E94A917882349F039
:10306000109235281092362810923728109238285E
:1030700081E00F9108950F93CF93C82F8091392A43
:10308000811105C0C1E08C2FCF910F91089540911F
:103090000A2850910B2860910C2870910D280C2F54
:1030A0002AE33AE28091352A9091362A0E94A917A4
:1030B000811102C0C0E0E7CFCC2321F381E00E9460
:1030C00017188823B9F31092392ADDCF8F929F9277
:1030D000AF92BF92EF92FF920F931F93CF934B014A
:1030E0005C01C42F80910A2890910B28A0910C2894
:1030F000B0910D2888159905AA05BB0551F181E00D
:103100000E943B1881110BC080E0CF911F910F915D
:10311000FF90EF90BF90AF909F908F9008958AE3BB
:10312000E82E8AE2F82E00E012E030E020E0B5015F
:10313000A4018091352A9091362A0E94071788238E
:1031400019F380920A2890920B28A0920C28B09232
:103150000D284091392A4C2B4093392A81E0D5CF54
:103160008F929F92AF92BF92CF92DF92EF92FF9297
:10317000CF932DED3CE22093352A3093362A8823D5
:1031800009F46DC040E060E070E0CB010E94661879
:1031900081110BC080E0CF91FF90EF90DF90CF9036
:1031A000BF90AF909F908F9008958091F82B8F776C
:1031B00089F78091042C9091052CA091062CB09158
:1031C000072C84369105A105B10520F3C090002C91
:1031D000D090012CE090022CF090032CC114D1046B
:1031E000E104F104B9F240E0C701B6010E9466189B
:1031F000882381F28091452A9091462A8115924038
:1032000049F6A0914A2AAA2329F26091482A70918E
:10321000492A6115710509F4BDCF2091472A22235F
:1032200009F4B8CFA093FB2C2093ED2C90E080E024
:1032300030E0E1E0F0E0C82FAF01082E02C0440FFB
:10324000551F0A94E2F72417350769F041E0480F4B
:1032500001968930910579F74093F62C9BCFC12CCC
:10326000D12C7601C0CF8093F62C2091502A30913A
:10327000512A50E040E02115310541F420915E2AA9
:1032800030915F2A4091602A5091612A2093EE2C60
:103290003093EF2C4093F02C5093F12C46015701C2
:1032A000860E971EA11CB11C8092FC2C9092FD2CC6
:1032B000A092FE2CB092FF2CE0914B2AF0914C2A68
:1032C000E093012DF093022DB0E00E94D730DC0195
:1032D000CB01880D991DAA1DBB1D8093032D9093D2
:1032E000042DA093052DB093062D25E0EE0FFF1FB2
:1032F0002A95E1F7E150FE4FEF2FFF27E6958E0F5D
:103300009F1FA11DB11D8093F72C9093F82CA093C3
:10331000F92CB093FA2C80904D2A90904E2AB12C23
:10332000A12C8114910441F480905A2A90905B2A38
:10333000A0905C2AB0905D2AC81AD90AEA0AFB0A52
:10334000C80CD91CEA1CFB1C04C0F694E794D79463
:10335000C794CA95D2F7C092F22CD092F32CE09287
:10336000F42CF092F52C85EFC8168FE0D806E10416
:10337000F10428F48CE08093002D81E00CCF80E1F3
:1033800025EFC2162FEFD206E104F104A0F38091DD
:10339000662A9091672AA091682AB091692A809341
:1033A000032D9093042DA093052DB093062D80E25C
:1033B000E2CF4F925F926F927F928F929F92AF92E5
:1033C000BF92CF92DF92EF92FF920F931F93CF9312
:1033D000DF93EC01423051056105710590F480E006
:1033E000DF91CF911F910F91FF90EF90DF90CF90E1
:1033F000BF90AF909F908F907F906F905F904F9015
:10340000089589859A85AB85BC850196A11DB11D5E
:1034100084179507A607B70710F3CB88DC88ED88DB
:10342000FE888F89803109F042C0BB27A72F962FD5
:10343000852F480159012A013B01C80ED91EEA1EF9
:10344000FB1E80910A2890910B28A0910C28B09126
:103450000D28C816D906EA06FB0699F58F89803132
:10346000C1F5B301A201552766277727440F551FE1
:10347000465C554DFA01808291828091392A8160A3
:103480008093392A8A89823080F08D819E81AF8134
:10349000B8858C0D9D1DAE1DBF1D80933528909362
:1034A0003628A0933728B093382881E099CFDB01E4
:1034B000CA01E7E0B695A79597958795EA95D1F764
:1034C000B8CF40E0C701B6010E9466188111C6CF8F
:1034D00086CFB301A2014F77552766277727440F80
:1034E000551F440F551F465C554DFA01808291824D
:1034F000A282B382C2CF8F929F92AF92BF92CF929D
:10350000DF92EF92FF920F931F93CF93DF93FC0113
:1035100081859285A385B4850196A11DB11D84176F
:103520009507A607B70770F480E0DF91CF911F9150
:103530000F91FF90EF90DF90CF90BF90AF909F9052
:103540008F90089583889488A588B688878980316C
:1035500089F5BB27A72F962F852FE9016A017B01EB
:103560008F01BC01CD01680D791D8A1D9B1D8090C6
:103570000A2890900B28A0900C28B0900D28861651
:103580009706A806B90601F5F8018789803111F57B
:10359000DD24EE24FF24F601EE0FFF1FE65CF54D5F
:1035A00080819181B0E0A0E088839983AA83BB8366
:1035B00081E0BBCFDB01CA01C7E0B695A79597951F
:1035C0008795CA95D1F7C9CF40E00E94661881114E
:1035D000DBCFAACFE894C7F8DD24EE24FF24F60160
:1035E000EE0FFF1FEE0FFF1FE65CF54D808191810E
:1035F000A281B381BF70D8CF4F925F926F927F92BA
:10360000AF92BF92CF92DF92EF92FF920F931F93F0
:10361000CF93DF9300D000D0CDB7DEB78C014983C4
:103620005A836B837C835901C12CD12C7601412CA8
:1036300082E0582E612C712C49815A816B817C81EA
:103640009E012F5F3F4FC8010E947B1A882339F1EA
:10365000F8018585A301920104C0220F331F441F86
:10366000551F8A95D2F7DA01C901C80ED91EEA1E84
:10367000FB1E49815A816B817C818789803109F1E8
:1036800088EF9FEFAFEFBFE0481759076A077B0746
:1036900098F2F501C082D182E282F38281E0249621
:1036A000CDBFDEBFDF91CF911F910F91FF90EF90C3
:1036B000DF90CF90BF90AF907F906F905F904F90D2
:1036C000089588EF9FEFA0E0B0E0DECFCF93DF93C7
:1036D000FC012581222321F080E0DF91CF91089524
:1036E000EC018091002D803159F582E08583178AA5
:1036F000108E118E128E8091012D9091022DB0E0CE
:10370000A0E025E0880F991FAA1FBB1F2A95D1F7BB
:10371000838B948BA58BB68B89EE9CE28B8F9C8FD1
:1037200081E08C831E821F82188619861A861B866A
:103730001C861D861E861F86188A198A1A8ACDCF76
:10374000803251F683E085834091032D5091042D02
:103750006091052D7091062D478B508F618F728F70
:103760009F012D5E3F4F89EE9CE20E94FC1A811161
:10377000D3CFB2CF8F929F92AF92BF92CF92DF9270
:10378000EF92FF920F931F93CF93DF93EC018D8104
:1037900081110EC080E0DF91CF911F910F91FF90BA
:1037A000EF90DF90CF90BF90AF909F908F90089553
:1037B0000B891C892D893E890417150726073707B1
:1037C00048F34A015B01823031F48A869B86AC86DD
:1037D000BD8681E0E0CF81149104A104B10449F4D5
:1037E0001E821F82188619861A861B861C861D86D5
:1037F000F0CF0A851B852C853D85EB8DFC8D85855D
:1038000090E00996B901A801415051096109710977
:10381000082E04C076956795579547950A94D2F778
:1038200075016401E1E0CE1AD108E108F10804C095
:10383000F694E794D794C7948A95D2F7C416D50620
:10384000E606F70620F0012B022B032B11F58F89DA
:10385000988DA98DBA8D8E839F83A887B9878E0195
:103860000A5F1F4FC114D104E104F10409F4ADCF84
:103870004E815F816885798598018B8D9C8D0E9432
:103880007B1A91E0C91AD108E108F1088111EACF49
:1038900081CFC41AD50AE60AF70AE1CF3F924F92C8
:1038A0005F926F927F928F929F92AF92BF92CF92D0
:1038B000DF92EF92FF920F931F93CF93DF93CDB7D9
:1038C000DEB72C97CDBFDEBF5C01DC015B968D902F
:1038D0009C905C9716964D905D906D907C9019979A
:1038E000411451046104710409F468C0BFEF4B1A1C
:1038F0005B0A6B0A7B0A312CF40181859285A385D2
:10390000B4859C01AD012F5F3F4F4F4F5F4F29871B
:103910003A874B875C87730162011D821E821F827A
:103920001886F40181859285A385B4852D813E8119
:103930004F815885281739074A075B0708F056C09A
:1039400089859A85AB85BC858C159D05AE05BF051F
:1039500050F482E0C82ED12CE12CF12C92E0492EBB
:10396000512C612C712C9E012F5F3F4FB701A60196
:10397000C4010E947B1A8823C9F189819A81AB8195
:10398000BC81892B8A2B8B2B09F1260137019FEFF4
:10399000491A590A690A790A2D813E814F81588551
:1039A0002F5F3F4F4F4F5F4F2D833E834F8358878D
:1039B0003FEFC31AD30AE30AF30AB3CFF4014080FE
:1039C0005180628073803324339496CFC414D5041D
:1039D000E604F70409F70FEF1FEF2FEF3FE0B70101
:1039E000A601C4010E94D919811116C080E02C964D
:1039F000CDBFDEBFDF91CF911F910F91FF90EF9070
:103A0000DF90CF90BF90AF909F908F907F906F90FE
:103A10005F904F903F900895D50116964D915D911E
:103A20006D917C911997411551056105710539F02A
:103A300097018601C4010E94D9198823B9F2D501E2
:103A40001696CD92DD92ED92FC921997332051F0AB
:103A5000D701C6010196A11DB11DF4018083918398
:103A6000A283B383F5018789908DA18DB28D892BB7
:103A70008A2B8B2B39F48481C78AD08EE18EF28E0B
:103A800080688483F50184818062848381E0AFCF84
:103A90002F923F924F925F926F927F928F929F925E
:103AA000AF92BF92CF92DF92EF92FF920F931F934C
:103AB000CF93DF93EC015B012A018D81811115C049
:103AC0008FEF9FEFDF91CF911F910F91FF90EF90BC
:103AD000DF90CF90BF90AF909F908F907F906F902E
:103AE0005F904F903F902F9008958C8180FFE8CF9A
:103AF0000B891C892D893E894A855B856C857D856E
:103B0000C201B0E0A0E068017901C41AD50AE60A52
:103B1000F70AC816D906EA06FB0618F42801441A63
:103B2000550A42011E0126E0220E311C8114910427
:103B300009F4B3C04A855B856C857D856A0181E0A7
:103B4000D8228B8D9C8D8A019B01E9E036952795C3
:103B500017950795EA95D1F7ED81E230E1F5FC0183
:103B6000628D738D848D958D600F711F821F931FE1
:103B7000612C22E0722E6C187D088614970408F4DC
:103B800034012C8126FD04C06114F2E07F0671F43B
:103B900000910A2810910B2820910C2830910D28B3
:103BA000061717072807390709F053C040E00E949D
:103BB0006618882309F484CFC601865C954DD5012B
:103BC0009C01260D371DFC012E173F0709F460C02C
:103BD00041914D93F9CFFC0174807A947022C11405
:103BE000D10471F471100CC0452B462B472B39F5CD
:103BF0008F89988DA98DBA8D8E839F83A887B98769
:103C0000EB8DFC8D6E817F8188859985625071096D
:103C100081099109258504C0660F771F881F991FA8
:103C20002A95D2F70685178520893189600F711F83
:103C3000821F931F670D711D811D911D99CF4E81AC
:103C40005F816885798591010E947B1A8111D8CFA7
:103C500037CF750183019601AB01BC018091352AF4
:103C60009091362A0E940717882309F429CFA60CC1
:103C7000B71C8A859B85AC85BD85860D971DA11DCA
:103C8000B11D8A879B87AC87BD87861897084ECF62
:103C9000281B390BA20EB31EECCFC20113CFCF935A
:103CA000DF931F92CDB7DEB741E050E0BE016F5FFA
:103CB0007F4F0E94481D019731F4898190E00F9059
:103CC000DF91CF9108958FEF9FEFF9CFFC01818DA8
:103CD000928D009711F00C944F1E8FEF9FEF089577
:103CE00080E79DE20E94CE09892B21F080E79DE2CA
:103CF0000C94661E8FEF9FEF08950F931F93CF9341
:103D0000DF93EC01898D9A8D10E000E0009799F027
:103D10000E944F1E8C010F3F100769F0898D9A8D0C
:103D2000FC014285538564857585415051096109BF
:103D300071090E94BA1BC801DF91CF911F910F91A9
:103D400008951F93CF93DF93FC0125812223D1F1A6
:103D5000162FEC01848187FF2AC0668577858089CC
:103D6000918941E00E946618882361F1EA8980E226
:103D7000E89FF0011124E65CF54D309719F18D8133
:103D8000823040F48B899C89AD89BE89848F958F60
:103D9000A68FB78F8F89988D828F938F8F89988DFB
:103DA000A98DBA8DA48BB58B8C818F778C831111E3
:103DB00003C08C818F7E8C83812FDF91CF911F91E7
:103DC0000C943B1880E0DF91CF911F9108950F93E1
:103DD0001F93CF93DF93EC0180E2689FF0011124E1
:103DE000E65CF54D6A8B80910A2890910B28A09192
:103DF0000C28B0910D288E879F87A88BB98B0489DA
:103E0000158930E020E09801112700270F8B188FCB
:103E1000298F3A8F828D938DB0E0A0E0AC01BD0177
:103E2000402B512B622B732B4F8B588F698F7A8FBE
:103E300083858871A9F4848D958DA68DB78D8B8B24
:103E40009C8BAD8BBE8B81E08D8381E08C831E8249
:103E50001F82188619861A861B861C861D8603C03B
:103E6000803131F080E0DF91CF911F910F91089563
:103E70009E012D5E3F4F8B8D9C8D0E94FC1A8823E6
:103E800089F384E0E1CFAF92BF92CF92DF92EF92BD
:103E9000FF920F931F93CF93DF93CDB7DEB72B978E
:103EA000CDBFDEBF6C01FE013196CE010C967F01C5
:103EB00020E22193E817F907E1F7DA0120E037E083
:103EC0009D91B92E992391F19E32A1F43A3079F463
:103ED00080E02B96CDBFDEBFDF91CF911F910F9178
:103EE000FF90EF90DF90CF90BF90AF90089528E0C3
:103EF0003AE0E6CFECEDFBE08491882321F03196A7
:103F00009813FACFE5CF321718F38FED890F8E355E
:103F1000F8F68FE9890F8A3118F440EEB42EB90E05
:103F2000F701E20FF11DB0822F5FCACF8981803285
:103F300079F28B01FB01838D948DF601838F948F31
:103F4000FB0116821782108611861286138614864C
:103F50001586F80182859385A485B58543895489A2
:103F60006589768984179507A607B70708F0B0CF4B
:103F700025E0B695A795979587952A95D1F7F82FBF
:103F8000FF70AF2EF8018581823008F4A1CFC801FF
:103F90000E944F1E97FD9CCFF80182859385A485D2
:103FA000B5854F96A11DB11D82879387A487B587DC
:103FB000F0E2AF9EB0011124665C754D611571058C
:103FC00009F486CFFB0180818823F1F0853E19F446
:103FD000B1102FC01BC04BE050E0C7010E947C34E1
:103FE000892B09F0B6CF6A2DC6012B96CDBFDEBF57
:103FF000DF91CF911F910F91FF90EF90DF90CF90C5
:10400000BF90AF900C94E71EB11062CFF601A28A68
:1040100080910A2890910B28A0910C28B0910D282E
:1040200086879787A08BB18BFB018081882309F459
:104030004FCFBB24B3948DCFCF92DF92EF92FF92FC
:104040000F931F93CF93DF93CDB7DEB7C756D10938
:10405000CDBFDEBF8C017B01DB015996CD90DC909A
:10406000F6018581823008F496C082859385A48507
:10407000B5858F719927AA27BB27892B8A2B8B2B74
:1040800009F089C040E250E0BE016F5F7F4FC6017A
:104090000E94481D803209F07EC08981882309F47E
:1040A0007AC0853E79F38E3269F38C8583FDEACF41
:1040B00022961EAE1FAE229780E59AEA8EAF9FAF82
:1040C00024961FAE2497BE016F5F7F4FE0E080E033
:1040D0002EE2DB019D91BD019032A1F0883049F4C0
:1040E0004BE550E04C0F5D1F4E0F511DDA012C9334
:1040F000EF5F4BE550E04C0F5D1F4E0F511DDA0195
:104100009C93EF5F8F5F8B3021F78BE590E08C0FF6
:104110009D1F8E0F911DFC011082D70159966D9144
:104120007C91AE01455A5F4FCE01CE960E94431F4F
:104130008823F1F0BE01625C7F4FCE0181960E9420
:104140007109AE01455A5F4FBE016F5D7F4FC801D7
:104150000E94D214C801C959DF4FCDBFDEBFDF9125
:10416000CF911F910F91FF90EF90DF90CF90089526
:10417000F8011282138288EE93E0A0E0B0E084831D
:104180009583A683B7838AE79AEA80839183118E09
:10419000128E1486DFCFD80112961D921C921397AF
:1041A00088EE93E0A0E0B0E0F801E9CFFF920F9332
:1041B0001F93CF93DF93EC018D81813041F090E02C
:1041C00080E0DF91CF911F910F91FF9008958C8136
:1041D00081FFF5CF82FD1BC00091352A1091362A50
:1041E000C8010E9481160E946E0AF82EC8010E9422
:1041F0003C0B8FEFF812E3CF8C8185FF1BC060E092
:10420000CE010E94A11E8C818F7D8C83D8CF4B89DB
:104210005C896D897E898A859B85AC85BD8584177F
:104220009507A607B707C1F2CE010E94BA1B8111FC
:10423000D3CFC5CF4091352850913628609137288B
:1042400070913828452B462B472B21F080E00E94A7
:104250001718B5CF80618C832A853B85317080E04B
:1042600092E0821B930BADCFCF93DF93EC0161E023
:104270000E94A11E882311F01D8281E0DF91CF9161
:1042800008952F923F924F925F926F927F928F92FA
:104290009F92AF92BF92CF92DF92EF92FF920F93D5
:1042A0001F93CF93DF93CDB7DEB7C456D109CDBFEF
:1042B000DEBF6C014B0118A219A280E59AEA8E8F2D
:1042C0009F8F1BA21B821C8289839A831E825E01A0
:1042D0008EE1A80EB11CC5010E94661B8401FE017F
:1042E00031967F0135012F016FE270E0C8010E9415
:1042F0009234009709F459C0F80120812F3269F4F3
:104300000F5F1F4F9E2D8F2D7301692E782E962DD6
:10431000872D3701E92EF82EE7CF801B8D3008F06E
:104320008CE0282E312CA101B801CE01885A9F4F74
:104330000E94AD34E8E5F0E0EC0FFD1FE20DF31D47
:104340001082C7010E943421F70185818823F1F092
:104350001DAE1EAE80E59AEA8BAF9CAF21961FAED4
:10436000219710E000E0080D191DF80180818111EE
:1043700024C0BE01655C7F4FC2010E9471094EECF2
:104380005AEAB201C6010E94D21435C0AE01485AA1
:104390005F4FB301C7010E94431F8823C9F2020D7A
:1043A000131DC3010E943421B2CF08191909B301AA
:1043B000CE01CB960E947109D6CF18A219A280E532
:1043C0009AEA8E8F9F8F1BA221968FAD2197811124
:1043D0002AC0F6011282138288EE93E0A0E0B0E0DA
:1043E00084839583A683B7838AE79AEA808391833F
:1043F000118E128E1486C601CC59DF4FCDBFDEBFA1
:10440000DF91CF911F910F91FF90EF90DF90CF90B0
:10441000BF90AF909F908F907F906F905F904F90E4
:104420003F902F900895A801BE01655C7F4FC501A4
:104430000E94431F882369F2CE01CB960E9434214B
:10444000B501C2010E947109A8019BCFCF93DF93F0
:10445000EC01898D9A8D009741F00E943421898D5D
:104460009A8D0E942E33198E1A8EDF91CF91089566
:10447000CF93DF93CDB7DEB76B97CDBFDEBFBC0167
:10448000CE0101960E944121CE0101960E94C209EF
:10449000882389F0BE016F5F7F4F80E79DE20E9415
:1044A000000F70E060E080E79EE10E94D50DCE0134
:1044B00001960E9426226B96CDBFDEBFDF91CF9181
:1044C0000895FC01818D928D009719F061E00C94A4
:1044D000A11E08952F923F924F925F926F927F920A
:1044E0008F929F92AF92BF92CF92DF92EF92FF9204
:1044F0000F931F93CF93DF93CDB7DEB72597CDBF33
:10450000DEBF7C015B01342E5D83DC0115968C914E
:104510001597813009F0CEC014962C9021FECAC0A8
:1045200022FCB4C0C32CDD8022947FE0272220949B
:10453000B22DB1702B2ED7011A964D915D916D91D0
:104540007C911D97C114D10409F428C15B968D910B
:104550009C915C97FC0174807A948A019B0169E0CC
:1045600036952795179507956A95D1F770228A0198
:104570001170711020C001151105E9F416964D91C6
:104580005D916D917C9119974115510561057105FA
:1045900009F099C057968D919D910D90BC91A02DD9
:1045A0000097A105B10509F0B0C0C7010E944E1CDB
:1045B000882309F47FC080E092E0801B910B4601C4
:1045C0008C159D0508F44C01D7015B964D915C91CB
:1045D0005C9716968D919D910D90BC91A02D0297A0
:1045E000A109B109FA01258504C0880F991FAA1FE6
:1045F000BB1F2A95D2F74685578560897189840F3C
:10460000951FA61FB71F9C01AD01270D311D411D30
:10461000511D29013A01811432E0930609F07BC053
:1046200080910A2890910B28A0910C28B0910D2818
:1046300084159505A605B70559F48FEF9FEFDC01AA
:1046400080930A2890930B28A0930C28B0930D28F0
:10465000022D9501B301A2018091352A9091362A4D
:104660000E94A917882331F19EEFB91AC818D908FA
:10467000F70182859385A485B585880D991DA11DB7
:10468000B11D82879387A487B58755CFF7014389EA
:1046900054896589768982859385A485B58548176F
:1046A00059076A077B0709F43DCFC7010E94BA1B6F
:1046B000811138CF81E090E0D70112968D939C93C1
:1046C000139780E007C09E012F5F3F4F0E947B1A27
:1046D000811102C090E079C089819A81AB81BC814F
:1046E000F701238D348DF901278948EF5FEF60E0F2
:1046F00070E0203121F048EF5FEF6FEF7FE084172B
:104700009507A607B70708F050CFF7018683978370
:10471000A087B18750CF0115110599F5D7011A96D9
:104720004D915D916D917C911D9753968D919D91C9
:104730000D90BC91A02D481759076A077B0708F117
:1047400081E00E943B18882309F4B4CF40920A28E4
:1047500050920B2860920C2870920D288091392A73
:1047600081608093392AC801865C954DD5019C01F2
:10477000280D391DFC012E173F0759F04D9141932B
:10478000FACF41E0C301B2010E9466188111EBCF5C
:1047900091CF281B390BA20EB31E68CFF701838976
:1047A0009489A589B68984179507A607B70738F4B1
:1047B0008481438B548B658B768B80688483F7016F
:1047C000848183FD18C0832D9D812596CDBFDEBFDA
:1047D000DF91CF911F910F91FF90EF90DF90CF90DD
:1047E000BF90AF909F908F907F906F905F904F9011
:1047F0003F902F90089561E0C7010E94A11E882379
:1048000009F458CFE0CFCF93DF931F92CDB7DEB737
:10481000698341E050E0BE016F5F7F4F0E946A22D2
:104820000F90DF91CF910895CF93DF93EC01E98D45
:10483000FA8D309749F481E090E08A839B8390E081
:1048400080E0DF91CF91089512821382898D9A8D35
:104850000E946A22E98DFA8D22813381232B59F738
:10486000F0CF1F920F920FB60F9211242F933F9308
:104870004F935F936F937F938F939F93AF93BF9368
:10488000EF93FF9385E00E945C06FF91EF91BF914B
:10489000AF919F918F917F916F915F914F913F91D8
:1048A0002F910F900FBE0F901F9018951F920F928F
:1048B0000FB60F9211242F933F934F935F936F93F3
:1048C0007F938F939F93AF93BF93EF93FF9384E076
:1048D0000E945C06FF91EF91BF91AF919F918F91E4
:1048E0007F916F915F914F913F912F910F900FBEEC
:1048F0000F901F9018951F920F920FB60F921124D0
:104900002F933F934F935F936F937F938F939F93D7
:10491000AF93BF93EF93FF9383E00E945C06FF91F8
:10492000EF91BF91AF919F918F917F916F915F9127
:104930004F913F912F910F900FBE0F901F901895A0
:104940001F920F920FB60F9211242F933F934F9304
:104950005F936F937F938F939F93AF93BF93EF93E7
:10496000FF9382E00E945C06FF91EF91BF91AF91AF
:104970009F918F917F916F915F914F913F912F9177
:104980000F900FBE0F901F9018951F920F920FB6A9
:104990000F9211242F933F934F935F936F937F93C5
:1049A0008F939F93AF93BF93EF93FF9381E00E9408
:1049B0005C06FF91EF91BF91AF919F918F917F9195
:1049C0006F915F914F913F912F910F900FBE0F907C
:1049D0001F9018951F920F920FB60F9211242F93CC
:1049E0003F934F935F936F937F938F939F93AF9377
:1049F000BF93EF93FF9380E00E945C06FF91EF91DD
:104A0000BF91AF919F918F917F916F915F914F91E6
:104A10003F912F910F900FBE0F901F9018951F92EE
:104A20000F920FB60F9211242F933F934F935F93E2
:104A30006F937F938F939F93AF93BF93EF93FF9366
:104A40008AE39CE20E94EB06FF91EF91BF91AF9148
:104A50009F918F917F916F915F914F913F912F9196
:104A60000F900FBE0F901F9018951F920F920FB6C8
:104A70000F9211242F933F934F935F936F937F93E4
:104A80008F939F93AF93BF93EF93FF93E091462C47
:104A9000F091472C818181FD2FC0608180914C2C49
:104AA0008F5F8F7390914D2C891741F0E0914C2CC2
:104AB000F0E0E65CF34D618F80934C2C8091D32C19
:104AC0009091D42C009739F0DC01ED91FC9101908C
:104AD000F081E02D0995FF91EF91BF91AF919F91EA
:104AE0008F917F916F915F914F913F912F910F9097
:104AF0000FBE0F901F9018958081EDCF1F920F92DF
:104B00000FB60F9211242F933F934F935F936F93A0
:104B10007F938F939F93AF93BF9340913B28509186
:104B20003C2860913D2870913E28809139289091D1
:104B30003A282091452830914628420F531F611D85
:104B4000711D2091432830914428820F931F883E85
:104B500023E0920730F0885E93404F5F5F4F6F4FC6
:104B60007F4F8093392890933A2840933B28509365
:104B70003C2860933D2870933E2880913F28909177
:104B80004028A0914128B09142280196A11DB11D55
:104B900080933F2890934028A0934128B0934228C7
:104BA00081E08093B60ABF91AF919F918F917F91E1
:104BB0006F915F914F913F912F910F900FBE0F908A
:104BC0001F90189520918F2D3091902D821793076B
:104BD00058F4E0918B2DF0918C2DE80FF91F809304
:104BE0008F2D9093902D10820895CF92DF92EF92A7
:104BF000FF920F931F93CF93DF93EAE3FCE21282BD
:104C0000138288EEC82E83E0D82EE12CF12CC482CA
:104C1000D582E682F78286E39AEA8083918380E6F2
:104C200098E08487958788E1868789E1878780E493
:104C3000808B128A138A148A158A86E2868B178AD9
:104C4000108E1092D32C1092D42CE5EDFCE240E0B3
:104C500059E06DE370E04083518362837383148273
:104C6000158281E090E086839783EDEDFCE215826A
:104C700016821186138602E010E020E030E00487FF
:104C800015872687378713A214A615A620E53AEACA
:104C900022A733A717A6E8E6FDE24083518362838B
:104CA00073831482158286839783E6E2FDE28CE5A6
:104CB0009AEA80839183178282E086838CE08283E4
:104CC0008DE084838BE0838388E08583E1E9FDE2E6
:104CD00012821382C482D582E682F782CAE7DAEAB8
:104CE000C083D183118E128E14866AE87AEA8BE82B
:104CF0009DE20E94B314E0E7FDE212821382C482B7
:104D0000D582E682F782C083D183118E128E1486FB
:104D1000DF91CF911F910F91FF90EF90DF90CF9097
:104D20000895CF93DF93CDB7DEB7CA58D109CDBF71
:104D3000DEBF88ED90E084BF9093610080E094E254
:104D4000A4EFB0E08093002890930128A09302285C
:104D5000B0930328809102068660809302068091BA
:104D60000006816080930006809102068F7C80930C
:104D700002068091A0008F788093A00080910206A7
:104D80008061809302061092E20581E08093E40541
:104D900083E08093010A8FEF90E08093260A90933E
:104DA000270A80E890E08093380A9093390A80932C
:104DB0003A0A90933B0A80933C0A90933D0A8BE019
:104DC0008093000A8091E50581608093E5058091DC
:104DD000E50582608093E505E0E8FAE037E02FEF33
:104DE00090E885E031832487958780837096E03C46
:104DF0004AE0F407B9F780E094E080934928909363
:104E00004A288091492890914A282FEF30E0B90133
:104E10000E94063260934728709348288091492861
:104E200090914A28E8EEF3E0BF010E9406326093B9
:104E30004528709346288091492890914A28BF01BF
:104E40000E94063280934328909344282093BC0A02
:104E50003093BD0A8091B50A81608093B50A94E0D1
:104E60009093B00A8091B00A81608093B00A7894E0
:104E700082E08093372A21E020930C2990930B291C
:104E8000299A84B962E070E080E10E94C50761E080
:104E900070E081E10E94C50761E070E084E10E945A
:104EA000C50740E052EC61E070E08AE39CE20E94BA
:104EB000420F80E091E08093122A9093132A6EE5CE
:104EC00071E080E090E00E94350962E070E08EE0E1
:104ED0000E94C5070E94FE0B87E09CE08093DF28BC
:104EE0009093E02810927F2810928028809172047D
:104EF000887F80937204809172048360809372042F
:104F00000E94BD0F80E490E08C0F9D1F0C96C75748
:104F1000DF4F88839983C958D0405BE5E52EF12C9B
:104F2000EC0EFD1E9CE0E90EF11C68EE462E63E0DF
:104F3000562E612C712CFE01EE57FF4FCB57DF4FE1
:104F4000E883F983C558D0400E94450D8C018F3FFE
:104F5000980739F41092342A1092332A1092322A88
:104F60001BC08F3F9F4FC4F18091332A811109C02C
:104F7000073011050CF003C40115110511F0009361
:104F8000322A8091322A833009F4FEC168F58130DB
:104F9000B1F1823009F486C18091312A81111CC09F
:104FA00081E10E945B0C08E010E080E10E9466084D
:104FB000110F182B84E10E945B0C0150B1F71F3FC9
:104FC00009F422C461E070E0812F0E94720D81110A
:104FD000E7CF81E08093312A80E090E0892B09F4CB
:104FE000B3CF0E940000A7CF853009F4C2C208F4F5
:104FF000ABC2863089F681E08093312AAFCF109220
:10500000322A6F961EAE1FAE6F97A3964CAE5DAE62
:105010006EAE7FAEA3978AE79AEA6D968EAF9FAF8A
:105020006D97E6961EAE1FAEE697A8961FAEA897A0
:105030008091E8AA9091E9AAA091EAAACE57DF4F01
:1050400088839983AA83C258D04010E0C12C3324AE
:10505000339432E0B32E43E0A42EC1103AC08091C5
:10506000142A882331F081E99DE20E94C20981114E
:1050700030C0DD24D394D10EE1E0F0E0EC0FFD1F51
:10508000E10FF11DA08260ED7AEA0CE0CC24C3941C
:1050900011E01D0DE1E0F0E0EC0FFD1FED0DF11D45
:1050A000008381E090E08C0F9D1F810F911D0E9475
:1050B000A634010F11E0100FE1E0F0E0EC0FFD1F4E
:1050C000E00FF11D1082CE01855A9F4F0E942622CB
:1050D000C4CF8091232A882329F18091152A88231F
:1050E00009F11092152ACB57DF4FE881F981C55895
:1050F000D04001900020E9F731970E2FCB57DF4FBA
:105100003881C558D040031BDD24D394D10EE1E093
:10511000F0E0EC0FFD1FE10FF11DB082BE016E57F4
:105120007F4FB6CF103330F1CE01855A9F4F0E948A
:10513000262200E00E94410D802F0E94DE0C66E0D6
:10514000812F0E94A00CCE0101966C018C01015CA4
:105150001F4F68E0F60181916F010E94A00C0C15B1
:105160001D05B9F785B19091372A892B85B90E9421
:105170003E0D12CF8091142A8823A9F081E99DE287
:105180000E94C209882379F061E97DE2CE01805C4A
:105190009F4F0E941C20BE01605C7F4FCE01855A4C
:1051A0009F4F0E94000F8091142A882309F493C610
:1051B00081E99DE20E94C209882309F48CC6CE01D0
:1051C000855A9F4F0E94C209882309F473C6F701CC
:1051D00001900020E9F731970E2F0E19E696EEADFB
:1051E000FFADE697309779F08581823060F0DD245D
:1051F000D394D10EE1E0F0E0EC0FFD1FE10FF11DC3
:10520000B082B70145CFB701CE0184589F4F0E94AD
:10521000B3146DED7AEACE01805C9F4F0E94B31407
:10522000BE01605C7F4FCE0184589F4F0E942E11BB
:10523000D82E811115C062EE7AEACE018A589F4FAE
:105240000E94B314BE016A587F4FCE0184589F4F0D
:105250000E942E11D82ECE018A589F4F0E94C8144A
:10526000CE01805C9F4F0E94C814DD2081F0DD24B8
:10527000D394D10EE1E0F0E0EC0FFD1FE10FF11D42
:105280003082CE0184589F4F0E94C814BACFCE01FD
:10529000855A9F4F0E942622CE0184589F4F0E941C
:1052A000C814DBCE81E08093332AC80180978F3504
:1052B000910560F4E0910828F0910928CF0101964A
:1052C0008093082890930928008366CE012B09F06B
:1052D00063CE1092312A1092332A1092322A66E954
:1052E00070E080E090E00E943509E0910828F0919C
:1052F0000928108284E29AE2809308289093092872
:105300008091232A6BE87DE281112BC0CE010196AA
:105310000E94AA1464E27AE2CE0101960E942F1440
:1053200000E011E0BC01CE01855A9F4F0E94AA14F3
:10533000002329F0CE01805C9F4F0E94C8141123E6
:1053400021F0CE0101960E94C8146D968EAD9FADDE
:105350006D970E943822CE01855A9F4F0E94C81433
:105360001BCECE01805C9F4F0E94AA146EEC7AEA9D
:10537000CE01805C9F4F0E942F1464E27AE20E946B
:105380002F1401E010E0CECF81E08093332A980102
:10539000205231092F35310558F4E0910628F0915B
:1053A0000728CF01019680930628909307288CCF79
:1053B000012B09F0F1CD1092332A1092322AE0919C
:1053C0000628F0910728108226E13AE22093062869
:1053D000309307289091162A992309F4A8C0809346
:1053E000152A68EE7AEAC9010E949D34892B09F0DA
:1053F00062C0C0908F2DD090902DC114D10449F17E
:10540000E0918B2DF0918C2DEC0DFD1DB080108264
:1054100000918B2D10918C2D6FE270E0C8010E94DD
:10542000BC340C0D1D1DF801B082009791F0209145
:105430008B2D30918C2D821B930B97FD0AC0109100
:10544000232A123008F401960E94E225115010938D
:10545000232A6AE87AEA86E19AE20E94A6348091D9
:10546000142A882379F060918B2D70918C2DCE01B8
:1054700001960E944121BE016F5F7F4F81E99DE24D
:105480000E94000F8091142A882331F081E99DE267
:105490000E94C20981110CC01092232A1092152A71
:1054A00050E040E06AE87AEA8BE89DE20E946A14E4
:1054B0000E94310F71CD8091232A8F5F8093232A20
:1054C0006BE87DE2823000F5CE0101960E94AA14BD
:1054D00066E17AE2CE0101960E942F1400E011E00D
:1054E000BC018BE89DE20E949314002329F0CE01B9
:1054F000805C9F4F0E94C814112309F4AACFCE01EB
:1055000001960E94C814A5CFCE01805C9F4F0E94D7
:10551000AA146EEC7AEACE01805C9F4F0E942F1491
:1055200066E17AE20E942F1401E010E0D9CF1092D8
:10553000232A1092152A41E050E06EEC7AEA8BE8BB
:105540009DE20E946A148BCF1092312A1092322A67
:105550008091142A882309F423CD81E99DE20E94D9
:10556000C209882309F41CCD81E99DE20E9426220C
:1055700013CD1092322A80910C2D882321F087E0E0
:105580009DE20E9434211092E82C1092E62C109299
:10559000E32C1092E22C85E18093E12C0E946509B6
:1055A0006B0161E070E08091E12C0E94F40761E002
:1055B00070E08091E12C0E94890886E29DE20E94C1
:1055C000511580E9082F8093D52C80ED8093D62C3F
:1055D00083E08093D72C1092D82C1092D92C109263
:1055E000DA2C81E0682F8093DB2C1092DC2C10EDFC
:1055F00023E030E040E05091DA2C70E086E29DE25A
:105600000E94A7151AE08FEF0E948E0A1150D9F759
:1056100086E29DE20E94930A8DED9CE20E94811633
:1056200020E030E0A90160E08DED9CE20E94AA1626
:10563000182F8093E72C813081F00E9465096C1946
:105640007D09613D774060F381E08093E22C8DED30
:105650009CE20E943C0B90E088C02AEA31E040E0E6
:1056600050E068E08DED9CE20E94AA1682FF2AC0FD
:105670001093E82C8091E82C812C912C54018230DD
:1056800029F4812C912CA12C20E4B22E20E030E0D2
:10569000A90167E38DED9CE20E94AA16A501940181
:1056A00069E28DED9CE20E94AA168093E72C882384
:1056B000C1F00E9465096C197D09613D774030F3A6
:1056C00088E0C3CF14E00E946E0A8093E72C11504B
:1056D000D1F78A3A11F082E0B8CF82E08093E82CCB
:1056E000C9CF8091E82C8230D1F420E030E0A901CC
:1056F0006AE38DED9CE20E94AA16882311F086E0F1
:10570000A4CF0E946E0A807C803C19F483E08093D1
:10571000E82C0E946E0A0E946E0A0E946E0A8DEDAD
:105720009CE20E943C0B80E099E0ADE3B0E0809306
:10573000D52C9093D62CA093D72CB093D82C109224
:10574000D92C1092DA2C81E090E08093DB2C90939E
:10575000DC2C0E94B018882359F087E09DE20E945B
:10576000661B91E0882309F476CF9093142AA0CE8B
:1057700080E00E94B018882309F46DCFEECF8091AD
:105780000428909105282091122A3091132A82171B
:10579000930788F49C012F5F3F4F20930428309398
:1057A0000528602F0E94C3300032110574F081E09B
:1057B0008093342AF1CB8091342A8823A9F36AE0BC
:1057C00070E083E00E94720DEFCF0A30110509F0FE
:1057D000E3CB8091342A811106C081E090E0809370
:1057E0000428909305288091042890910528209101
:1057F000122A3091132A8217930718F46FEF0E9430
:10580000C3301092342AC8CB6EE070E080E090E0A4
:105810000E9435090E94FE11382E3FEF831709F4CC
:1058200002C2E0E4E8278FE38E0F8C3030F4EF7093
:1058300021F0E13001F50E94981110E4832D8127B9
:105840009FE3980F9C3010F48F7039F40E94410D43
:10585000832D0E94DE0C0E943E0D4FEF341609F49A
:10586000E2C16FE070E080E090E00E9435090E94A4
:10587000FE11382EE3CFE63000F7E250FF0BEE0FBB
:10588000FF1FEE0FFF1FEE5DF545808191810097B0
:1058900059F08093102A9093112A70E060E082E220
:1058A00096E00E94D50DC9CF82ED97E00E946F0F60
:1058B00001E010E082E390E0C957DF4F88839983CD
:1058C000C758D040D12CC12CC8010E94BB30282E13
:1058D00056019FEFA91AB90ACD2821F4EFEF8E17D0
:1058E00009F4ABCF62E070E0822D0E94720DFDE002
:1058F0002F120FC022E32A9DC0012B9D900D112471
:10590000FC01E45DFE4FC957DF4FE883F983C758B8
:10591000D040C5016AE170E00E940632892B01F592
:105920006CE271E080E090E00E943509FAE06501E8
:105930002F120EC0C957DF4F28813981C758D04078
:10594000B901330F880B990B0E943509D12CC12C5A
:105950000F5F1F4F011531E0130709F0B5CF6DCF71
:1059600064E170E080E090E0DFCF8134910509F4DC
:105970008DC28334910509F09CC190910D2981E07D
:1059800089270E94AB0F4BC18A34910509F4A1C14C
:105990000CF05AC08534910509F488C28834910509
:1059A00009F087C182ED9AE00E946F0F84EB9AE0C4
:1059B0000E946F0F8AE99AE00E946F0F80E89AE0D8
:1059C0000E946F0F88E69AE00E946F0F83E39AE0CF
:1059D0000E946F0F8DEF99E00E946F0F89EF99E0A1
:1059E0000E9481074AE063E070E080E090E00E945E
:1059F000BC1088EC99E00E946F0F8FE899E00E943C
:105A00006F0F86E699E00E946F0F8AE499E00E948A
:105A10006F0F87E399E00E946F0F89E099E00E9481
:105A20006F0F8FED98E00E946F0F80EC98E00E945E
:105A30006F0F8CE998E00E946F0F86E898E00E9453
:105A40006F0F87E698E0C5C08B34910509F43CC11F
:105A50008C34910509F02DC188E398E00E946F0F06
:105A60008AE39CE20E94A1071AE062E070E08BEFFB
:105A70000E94720D62E370E080E090E00E943509C0
:105A8000115099F762E070E08FE70E94720D68EEA6
:105A900073E080E090E0C1C08435910509F48BC1CA
:105AA0008CF58135910509F4FDC104F5803591052A
:105AB00009F0FFC082E298E00E946F0F04301105E8
:105AC00008F0ADC0000F111F000F111FF801EE5DAF
:105AD000F545808191818093102A9093112A70E07E
