:100000000C94D7090C94FF090C94FF090C94FF0978
:100010000C94FF090C94FF090C94B6280C94FF096A
:100020000C94FF090C94FF090C94FF090C94FF0930
:100030000C94FF090C94FF090C94FF090C94FF0920
:100040000C94FF090C94FF090C94FF090C94FF0910
:100050000C9447280C94FF090C94FF090C94FF0999
:100060000C946C280C94FF090C94FF090C94FF0964
:100070000C94FF090C94FD270C94FF090C94FF09C4
:100080000C94FF090C94FF090C9491280C942228DD
:100090000C944A290C9401290C94DB280C94FF0938
:1000A000214769676174726F6E206F66666C696E56
:1000B00065003A4769676174726F6E204F4B004369
:1000C0006D643F003A5374617274696E67204C6FBF
:1000D000616465722066726F6D206D656E750000DB
:1000E00000A00318605F7DF42B8948AB2A0003D180
:1000F00001C0458A28C41140048410200088083EAD
:100100003EE127A94EAA569F70B276B73E984EBFE1
:100110007EBE764001400551114A294445B8423D12
:100120003A8F3EAA7E313A2E7EB17E907E373E9F38
:100130007CF1473E0A9B7C217C9F7DDF7D3F7E4C8E
:100140007E6F3ACD7EB226F0433F7C3E78DF7C9BCB
:100150006CFC70B94EF1038220E0470822210400B4
:10016000412F1D267D29193F196D19F411BEB207C3
:100170007DE1162E898B7CE147CF3D073D26194C4A
:10018000FE5FB2883CEA15E9232F386E38EF3CC990
:1001900024BEE06D25F113E003E4471023FF7F3F09
:1001A00000214661696C6564002154696D656F7555
:1001B00074206572726F7220286E6F2064617461A2
:1001C0002900FF0D09FF5A0AFF761BFF2920771629
:1001D00021084A21761E2208262241522241262346
:1001E000A82623905223065D238C5D2377252408BF
:1001F0005B24772E25485225081626743626433D63
:1002000026082527304E27035227045527445D270B
:10021000082E28743E284346284345297446290859
:100220004E29433E2A745B2A085D2AFF7C2A4B55DF
:100230002B345B2BFF792B083A2C37412C08362DB9
:10024000344A2D034E2DFF7B2D48412E37492EFF7A
:10025000712E743D2F48492F034A2F3745304845AA
:1002600030FF7030371631481631FF6931371E3292
:10027000481E32FF7232372633482633FF7A33372F
:100280002534482534FF6B34372E35482E35FF731F
:1002900035373636483636FF7436373D37483D37C2
:1002A000FF6C37373E38483E38FF75383746394897
:1002B0004639FF7D3908493A74493A434C3A084176
:1002C0003B74413B034C3B43413C3C613C74453DEA
:1002D0000B553D43493E7C613E483A3F434A3F749B
:1002E0004E3F8C1540411E40A01E40884540904C1A
:1002F00040425240481541771C417F32427F2143A2
:100300007F23447F24457F2B467F34477F33487FBC
:1003100043497F3B4A7F424B7F4B4C773A4D484C99
:100320004D7F314E7F444F7F4D50771551481C51C2
:100330007F2D527F1B537F2C547F3C557F2A56487C
:100340001A57771D577F2258441A597B3559731A0B
:100350005A481D5A44355A882E5B943E5B03545BC1
:10036000B0545B100E5CA00E5C883E5C844E5C0159
:100370005D5C02615C94465D884E5D035B5DB05BD5
:100380005D040E5E43365E88465E08545E60545ED1
:1003900050555E083E5F744A5F434E5F030E6088AF
:1003A0003D60904E60205460445560081561371CD4
:1003B000613F32623F21633F23643F24653F2B66E8
:1003C0003F34673F33683F43693F3B6A3F426B3F7F
:1003D0004B6C373A6D084C6D3F316E3F446F3F4D6B
:1003E00070371571081C713F2D723F1B733F2C74C1
:1003F0003F3C753F2A76081A77371D773F227804ED
:100400001A793B3579331A7A081D7A04357A8825AA
:100410007B943D7BA0527B43547B500E7CA0167C8A
:1004200088367C415D7C42617CAC617C94457D88F2
:10043000567D435B7DA05D7D410E7E881E7EA0259E
:100440007E90557E845B7E425D7EFF667FFF05C1A8
:10045000FF06C2FF04C3FF0CC4FF03C5FF0BC6FFAA
:1004600083C7FF0AC8FF01C9FF09CAFF78CBFF078E
:10047000CC5465726D696E616C206D6F64653A2055
:10048000657869742077697468204374726C2D44B0
:10049000003A526573657474696E672047696761D5
:1004A00074726F6E003A20512F45202020202020AA
:1004B00053656C6563742F73746172742062757414
:1004C000746F6E003A205A2F58202020202020419F
:1004D0002F4220627574746F6E003A20572F412F9F
:1004E000532F44202055702F6C6566742F646F77EE
:1004F0006E2F7269676874206172726F77003A209C
:10050000542020202020202020456E746572207405
:1005100065726D696E616C206D6F6465003A202EA6
:100520003C746578743E202053656E642074657851
:1005300074206C696E6520617320415343494920E2
:100540006B65797374726F6B6573003A204A202073
:100550002020202020204C697374205344003A202E
:100560004B3C6E616D653E20205472616E73666512
:10057000722066726F6D205344003A20552020206F
:1005800020202020205472616E73666572206F6295
:100590006A6563742066696C652066726F6D2055AC
:1005A0005342003A202020202020202020205B4899
:1005B000696E743A2055736520272E53415645279E
:1005C00020666F7220736176696E672C206E6F747F
:1005D000202754272D6D6F6465215D002020202089
:1005E000202020547970652073617665642045452C
:1005F00050524F4D2064617461206261636B2069C9
:100600006E746F204769676174726F6E003A205094
:10061000003A20505B3C6E3E5D2020205472616E9B
:1006200073666572206F626A6563742066696C65C3
:100630002066726F6D2050524F474D454D20736CB0
:100640006F74203C6E3E003A204D20202020202058
:1006500020204D656E7520696E204C6F6164657257
:100660002073637265656E003A204C2020202020A4
:100670002020204C6F61646572003A2052202020B7
:1006800020202020205265736574204769676174BB
:10069000726F6E003A204820202020202020204821
:1006A000656C70003A205620202020202020204316
:1006B0006F6E66696775726174696F6E003A436F39
:1006C0006D6D616E647320617265003A5479706576
:1006D0002027482720666F722068656C70003A20DA
:1006E00073697A653D003A454550524F4D3A003A9C
:1006F000506C6174666F726D3D41726475696E6FA6
:100700004E616E6F45766572790021556E6B6E6F26
:10071000776E20636F6D6D616E64202874797065EB
:100720002027482720666F722068656C70290002B8
:1007300000FA59202B8211CF62CF1811200F2BA263
:1007400059012BAA59002BA611BD61CF1811A9611F
:100750002BCC11FE7C2B8411A07D2B8611D561CF73
:100760001811FE7C2B8411A07B2B8611D561CF182C
:1007700011FE7C2B8411A07A2B8611D561CF181124
:10078000A602CF1811D511CF1811CD10CF1811BB5B
:1007900011CF1811CD09CF1811E710CF18119603FA
:1007A000CF1811E803CF182140353F6411A611CFAF
:1007B00018115804CF1859002B4A59FF2B4C11C956
:1007C00061CF1811B70CCF182146353F9B9050933D
:1007D0004A118C02CF18B480751A2182FC2B4E214D
:1007E0004E8C20353FB711C302CF18113EE22B309B
:1007F000117903CF18214E8C28353FCD11D902CF66
:100800001811A8B42B30117903CF18214E8C38352C
:100810003FE311EF02CF18115AAD2B30117903CFFE
:1008200018214EE640ECFE110003CF180300F6EE4F
:10083000FE355308117903CF1821302B8211A061A6
:10084000CF182B30213035721D115E03CF1811A047
:100850007B2B825906F08259242B5011A07B995092
:10086000E6232BE82150ADF0E893501A50E62B35E3
:10087000562A11A07B2B8411A67C2B9411C566CF20
:1008800018820135725A115E03CF1863FF2130358B
:100890003F66110A03CF1811B1692B8211E662CFAE
:1008A0001811A267CF18B48063FF7511060B2B22B5
:1008B00021322B2459012B261A34E9E9E92B27B4DC
:1008C000E62B3663FF7521702B2211AE7C2B245949
:1008D000CF5E27B4FE11AE7CAD8CFF353F9959DB5E
:1008E0005E27B4FE59EB5E27B4FE59FB5E27B4FECB
:1008F00059025E27B4FE1A27E3045E278CF2357294
:10090000C359B95E27B4FE11AE7CAD2B4011AF7C4C
:10091000AD823F2B4263FF7559022B522142ECFE00
:10092000110004CF180400FAEEFE353F08110C0444
:10093000CF1863FF21388C6435721363FF59002B85
:100940005411AE7C9952AD2B5621382B9621542B45
:1009500098113806CFCC2BEA2156F0EA93529354E3
:100960002156357217933821388C6435724663FFEF
:100970002152E602FC42353F54111504CF1863FFA3
:10098000752138E60F2BE8213A2B8221E82B8411C0
:10099000A164CF182B8259002B8411E261CF182B50
:1009A00058213AE30E2BE82138E6012BEA21E82B07
:1009B0008221EA2B8411A164CF182B5A21582B5C79
:1009C000215A2BB059012BB2215C2B9659002B9840
:1009D000113806CFCCE3012B5E215EAD2B60215E8A
:1009E000E601AD2B62215CB83AFC3C353FC911E70A
:1009F00004CF1821628C013572D7113F202BA290B1
:100A0000DC112A202BA2215E2B44111105CF1821C5
:100A1000628C01353FF1110C05CF18ECFE11000579
:100A2000CF180500F8EEFE11203F2BA2111105CFC3
:100A30001811202A2BA259025EA4215CB83AE9E9D8
:100A4000E95EA511A066CF18215E2B8211E662CF68
:100A500018590CB8605E8411AE64CF18215C99B24D
:100A60002B5CB8B0354D4511A004CF1863FF75213C
:100A700038E60F2BE8213A2B8221E82B8411A16460
:100A8000CF182B8259002B8411E261CF182B5821EB
:100A900058993E2B6421642B9659002B98113806E7
:100AA000CFCCE3012B662166AD2B682166E601AD54
:100AB0002B6221628C0135729911203F2BA2909EEE
:100AC00011202A2BA259025EA42164B858E9E9E951
:100AD0005EA511A066CF1821662B8211E662CF18A1
:100AE000590CB8685E8411AE64CF18213C2B3E21AE
:100AF00058993C2B6A216A2B9659002B981138067D
:100B0000CFCCE3012B6C216CAD2B6E216CE601ADDB
:100B10002B6221628C01ECFE110006CF1806003416
:100B2000EEFE353F08111406CF18113F202BA211FD
:100B30001906CF18112A202BA259025EA4216AB8E7
:100B400058E9E9E95EA511A066CF18216CECFE1109
:100B5000A008CF180638C8F179E279D379C479B5FD
:100B600079A679F178E278D378C478B578A678F167
:100B700077E277D377C477B577A677F176E276D345
:100B800076C476B576A676F175E275D375C475B57B
:100B900075A675F174E274D374C474B574A674F157
:100BA00073E273D373C473B573A673F172E272D335
:100BB00072C472B572A672F171E271D371C471B56B
:100BC00071A671F170E270D370C470B570A670F147
:100BD0006FE26FD36FC46FB56FA66FF16EE26ED325
:100BE0006EC46EB56EA66EF16DE26DD36DC46DB55B
:100BF0006DA66DF16CE26CD36CC46CB56CA66CF137
:100C00006BE26BD36BC46BB56BA66BF16AE26AD314
:100C10006AC46AB56AA66AF169E269D369C46908F7
:100C2000A05FEEFE2B8211E662CF18590CB86E5E03
:100C30008411AE64CF18216C2B4463FF751A218296
:100C4000FC2B4E11180B2B70214E8C203572D011BD
:100C5000B10B2B70214E8C283572DC11DF0B2B7001
:100C6000214E8C383572E811318A2B70214E8C4020
:100C70003572F41107592B70214EECFE11A009CFEB
:100C80001809A05EEEFE8CF03572AA1100132B70CD
:100C9000214E8CF83572C91A318C5A3572BD110744
:100CA000592B701A318C5C3572C911075B2B70633C
:100CB000FF7511EF7C2B825903F08211A07AAD2BC6
:100CC0007259019972E3012B342172354DED11C730
:100CD0000ACF1859012B5C2172E301ECFE11A00A26
:100CE000CF180AA05FEEFE2BB059012BB211EF7C9A
:100CF000995C2BE811A07A995CADF0E8215C99B27F
:100D00002B5CB8B03556A611D00ACF1811F07C2B49
:100D1000825900F082117B03CF1811AE10CF181149
:100D2000FE7C2B8411A07A2B8611D561CF1863FF2E
:100D30007511CD10CF1811EF7C2B825902ECFE11EA
:100D4000A00BCF180BA05EEEFEF08221442B841185
:100D5000A07D2B8611D561CF1811A07DAD2B7259C6
:100D6000012B5C2172E3012BB059012BB211EF7CF6
:100D7000995C2BE811A07D995CADF0E8215C99B2FB
:100D80002B5CB8B03556C411200F2BA211A365CF30
:100D90001811C965CF1859019972E3012B34ECFE83
:100DA00011A00CCF180CA05EEEFE117B03CF182112
:100DB000302B241100022B8211B361CF1863FF7511
:100DC0001A0F2B742174FC4C353FD659002B4A2145
:100DD000742B4C21742B8259002B8411CD64CF18B5
:100DE000214AE614354DE211DE08CF18214A2BA026
:100DF00011F560CF1882013572F511DE08CF18ECBD
:100E0000FE11A00DCF180DA05FEEFE21742B8259AC
:100E1000002B8411CD64CF1863FF7511B20FCF186A
:100E200063FF7511B20FCF1863FF75213AE30F2BE3
:100E30003A2138E60F2BE8213A2B8221E82B841146
:100E4000A164CF182B8259002B8411E261CF182B9B
:100E50003A115804CF1863FF75213AE60F2B3A2157
:100E60003AECFE11A00ECF180EA05CEEFE2B8259BC
:100E7000002B8411E261CF182B3A115804CF18636C
:100E8000FF75933C2138E6012B82590E2B8411A16A
:100E900064CF182BEA213CB8EA3556D359002B3CD5
:100EA000114905CF1863FF75213CE6012B3C213C1D
:100EB0003550EB11AB0FCF182138E6012B82590EBC
:100EC000ECFE11A00FCF180FA05FEEFE2B8411A136
:100ED00064CF182B3C114905CF1863FF752144E6F8
:100EE00001AD2B7621768C023572D159012B46212A
:100EF000442B8411A07A2B8611D561CF1821768CD2
:100F0000013572E159002B4611EB0ACF1821768C7E
:100F100003353FED11AC10CF1859022B4611FE7C62
:100F20002B84ECFE11A010CF1810A05FEEFE11A0D4
:100F30007A2B8611D561CF1863FF7521702B22594A
:100F4000482B2459CF5E27B4FE1A483572B1590296
:100F50002B8211A263CF1863FF7559012B3411EF57
:100F60007C2B825906F082117B03CF1811C961CF07
:100F70001863FF7559012B3411EF7C2B825901F056
:100F800082117B03ECFE11A011CF1811A05EEEFEC2
:100F9000CF1863FF7559012B3411EF7C2B82590454
:100FA000F082117B03CF1863FF7559012B3411EFC9
:100FB0007C2B825905F082117B03CF1811AE10CF24
:100FC0001863FF7559342B9C11EF61CF1811BA08C3
:100FD000CF1811EF7C2B3259022B8211EB60CF1806
:100FE00011203F2BA2ECFE11A012CF1812A010EE80
:100FF000FE11A365CF1811C965CF1863FFB48060D7
:10100000EB1411000B2B222182B4E6FF1100062BFA
:101010002221A0B4F6FF61A03159EF2B222182B426
:10102000E6FF99969996F699982B9EFF21822B1AA6
:1010300059AD2B22B4E259022BA411FDFFF8AA2BC3
:10104000AAFF1A098CB33572C7FF61D52A2184AD76
:10105000F086938493863572D3FF2182B88435530A
:10106000EA2184FF2182FF5900F39C939C939C1AF0
:101070009C8C803572EDFF62A8577511BD61CF1849
:1010800011030B2B221AA25E2563FF11E1042B2210
:1010900021A22B241AA5E99319AD5E291AA45E2872
:1010A000FF1A2182FCB8823553E31150442B841A75
:1010B00086F084938690DBFF7511B962CF18938216
:1010C0002182AD353FFB5E9211A768CF1890EA638D
:1010D000FF63A25B752182E6012B823553AC63FF6F
:1010E00011C961CF1890A11AA4E3065EA4E69A354F
:1010F00056CC5904F8AA3572CC7511A267CF186383
:10110000FF7511030B2B221AA25E25110001AD5EA3
:101110002759085E9E59A05E2459005E26B4F393B9
:10112000271A9EE6013572DF11B962CF1863FF649A
:10113000A15E2182B8843556A92184FF2182FF75E2
:101140001A84353FC911B962CF1859202B9211A7C3
:1011500068CF181A84E6015E843572B763FF751193
:10116000A3692B862B9211F4682B882192F6357295
:10117000E72184353FE5CF8463FFB882353FF293A2
:1011800092939290D82192B8869988F6CF1863FFEF
:1011900065A3227559082B981100012B9A2198F309
:1011A0009A939A939A93981A98E6803550AB11BD0A
:1011B00061CF1863FF65C9347511A862CF1859084B
:1011C0002B9459A05E2459005E261A945E27B4F32E
:1011D00059A05E2459005E26118700B8945E27B49A
:1011E000F393941A94E6443550D163FF66A05F1AD6
:1011F000A4E69A3556A959005EA41AA5E6703550A2
:10120000BB59705EA55902FAAA2BAAFF11FDFFF87F
:10121000AA2BAAFF2184AD2B882194AD2B9C93840B
:1012200093942184AD353FED2B822194ADB8823566
:1012300050FA354DEA9384939490D15900FF218858
:10124000B89C3550EA354DFA5901FF5902FF67A2A3
:101250005959025EA45E285901F8AA3572AEFF758D
:101260005902F8AA3572C51AA5E3085EA5E67835D5
:1012700050F259705EA511CF63CF181100012B9861
:101280002198ADE308827FE6083553DDE308E308E3
:10129000F098939893981A98E6F03550CF5902FA3F
:1012A000AA2BAA11B962CF1863FF68A74B1A9282C2
:1012B0007FE6523553BAE3323550EF2B92110007D7
:1012C00090BF2B921100082B941A92E9E9999299F8
:1012D000942B9459055E9621947F005E26B4CB939F
:1012E0009493281A96E6013572CD5E26B4CB9328E6
:1012F0007511B563CF1863FF68F40CB10DB90DC15A
:101300000DEF0DB60EDC0E69A3217F000A00FE0072
:10131000FD00FB00F7000000114C6F616465722056
:101320006E6F7420666F756E6421007AA0020000F3
:101330007BA00200007CA65A064C6F6164657200B7
:10134000000000000000000000000000000000009D
:10135000000000000000000000000000000000008D
:10136000000000000000000000000000000000007D
:10137000000000000000000000000000000000006D
:10138000000000000000000000000000000000005D
:1013900000007DA00200000002007C3C3E5E2B3D70
:1013A0003F2F5B5D3B2C2A225C00C129C8321124EF
:1013B0001FBECFEFCDBFDFE3DEBF2DE2A4E1B8E279
:1013C00001C01D92AE3AB207E1F718E2A0E0B8E220
:1013D000E9EAF1E702C005900D92A431B107D9F70F
:1013E00019E0C6EDD9E004C02197FE010E94E7355F
:1013F000C53DD107C9F70E945D2A0C9422380C9490
:101400000000E0910E2AF0910F2ACF0101968093FF
:101410000E2A90930F2A849190E00895AF92BF9284
:10142000CF92DF92EF92FF920F931F93CF93DF93B0
:101430006C017B018B01040F151FEB015E01AE18DF
:10144000BF08C017D10759F06991D601ED91FC9101
:101450000190F081E02DC6010995892B79F7C5012E
:10146000DF91CF911F910F91FF90EF90DF90CF9080
:10147000BF90AF900895EF92FF920F931F93CF9379
:10148000DF93C82FD0E0A09695E0CC0FDD1F9A9592
:10149000E1F7E984F82EFF0CFF0CFF0C01E010E0EF
:1014A0008E2D8023A9F02F2D210F30E0220F331F26
:1014B000F901E555F74D80819181892B49F0019023
:1014C000F081E02D255B374DD9018D919C910995D7
:1014D0001F5F000F183021F7E986DF91CF911F9130
:1014E0000F91FF90EF900895FC0154894589252FB5
:1014F00030E0842F90E0821B930B541710F0CF96AE
:10150000089501970895FC0192898389981761F0E5
:10151000A389AE0FBF2FB11D59968C9193899F5F00
:101520009F73938B90E008958FEF9FEF0895FC01D8
:1015300092898389981731F08389E80FF11D818D95
:1015400090E008958FEF9FEF0895FC019289238921
:10155000892F90E0805C9F4F821B91098F739927A0
:101560000895CF93DF93EC01E881F9810680F7813C
:10157000E02D0995EC85FD8586818F738683EC854A
:10158000FD8585818F7585838B898A8B198ADF918B
:10159000CF910895CF93DF93FC0194898589C48509
:1015A000D585981306C08D818F7D8D83DF91CF9176
:1015B0000895A589AE0FBF2FB11DA75ABF4F2C911B
:1015C000858990E001968F739927858B80E48C83C1
:1015D000A485B58512962C93948985899813E6CFB6
:1015E000A485B58515968C9115978F7D15968C934E
:1015F00087898823D9F2808D80931301178AD6CFEB
:10160000DC011C96ED91FC910FB607FE03C025810D
:1016100025FD04C0248125FD0C94CA0A0895EF928B
:10162000FF920F931F93CF93DF93EC0181E0898B9F
:101630009C898D8998131CC0AC85BD8514968C91AE
:10164000149785FF15C012966C93AC85BD8580E418
:1016500014968C93EC85FD8585818F7D858381E053
:1016600090E0DF91CF911F910F91FF90EF9008953F
:101670008091110180FF08C080911301888F8E89AD
:101680008093130181E08F8BF62E0C8910E00F5FA1
:101690001F4F0F731127E02E8D898E1104C0CE01CC
:1016A0000E94000BF9CFEC89EC0FFD2FF11DE75ADA
:1016B000FF4FF0820C8BEC85FD8585818062CECF5B
:1016C0000F931F93CF93DF938C01D0E0C0E0F8011C
:1016D000EC0FFD1F6491662341F088E39CE20E94B9
:1016E0000F0B892B11F02196F2CFCE01DF91CF9114
:1016F0001F910F910895CF93DF93FC01218922233D
:10170000C9F0EC018091110180FF08C080911301A4
:10171000808F86898093130181E0878BEC85FD851E
:10172000858185FD03C0848186FD04C0CE010E94B1
:10173000000BF4CFDF91CF91089581E00895CF930E
:10174000DF9390E0FC01E254FF4420812F3F69F0D9
:10175000FC01E657FF44E08130E2E39FF0011124F1
:10176000FC5F6130710521F42183DF91CF910895F1
:101770008C559F44EC01A881AF3F69F0CF014096A2
:10178000A80FB92FB11D9FB7F89422838C91886060
:101790008C939FBFEACFB0E0A0E0F5CF8B3210F47E
:1017A0000C949F0B0895282F30E0F901E059FF4475
:1017B000E081EE2309F1E13021F0F0F0E63098F01D
:1017C00008954091010A2C553F44F90120812C5F76
:1017D00081E090E001C0880F2A95EAF78095842384
:1017E0008093010A089580E1E89FF0011124E05AF6
:1017F000F54F81818F7E81830895FF920F931F9310
:10180000CF93DF93082F10E0F801E254FF44F080FB
:101810009FEFF916A1F0EB018B3210F40E94D30B6D
:10182000F801E657FF44E08180E2E89FF0011124CF
:10183000FC5F80818F2159F0CD2B39F4F682DF9146
:10184000CF911F910F91FF900895F582F8CFD801A5
:10185000AC55BF448C91309771F08F3F61F070961A
:10186000E80FF11D9FB7F8948081CD2B39F4877F65
:1018700080839FBFE4CFF0E0E0E0F4CF8860F8CF52
:101880000F931F93CF93082F10E0F801E254FF4409
:10189000C081CF3FA9F00E94D30BF801E657FF4467
:1018A000E08180E2E89FF0011124FC5F8085C8237D
:1018B00081E090E009F480E0CF911F910F910895AD
:1018C00080E090E0F9CF8B3210F40C94FD0B08957A
:1018D000CF92DF92EF92FF920F931F93CF93DF93FC
:1018E000EC016A017B01022F8989882339F0E881A4
:1018F000F9810288F389E02DCE01099598898091BC
:10190000E205892B8093E2051FB7F89460E070E24E
:1019100081EA97E0A70196010E94753569017A0175
:101920008FEFC81AD80AE80AF80AF694E794D79411
:10193000C794EC85FD8586818D7F8683EC85FD854A
:1019400086818683198AA09123110A2E000CBB0B75
:10195000A70196010E94B63520E034E040E050E057
:101960000E949735EC85FD85C20ED31EE41EF51E40
:10197000C086D186EC85FD850783EC85FD85868153
:10198000806C8683EC85FD858581806885838E8566
:1019900062E070E00E94CE0B8F8561E070E00E94F3
:1019A000630C8F8561E070E00E94CE0B1FBFDF915A
:1019B000CF911F910F91FF90EF90DF90CF900895FE
:1019C000CF93DF938FB7F89420913F283091402830
:1019D0004091412850914228E091BA0A9091B60A6C
:1019E00090FF06C02F5F3F4F4F4F5F4FE091BA0A05
:1019F0008FBFA0914928B0914A28C0914728D09123
:101A000048280E943234EC9F9001ED9F300D112444
:101A1000620F731F811D911DDF91CF9108958F92E9
:101A20009F92AF92BF92CF92DF92EF92FF924B01C3
:101A30005C010E94E00C6B017C01A8EEB3E0A50103
:101A400094010E943234C60ED71EE81EF91EC61637
:101A5000D706E806F90618F40E94E00CF8CF0E94B9
:101A6000E00C6C157D058E059F05C8F3FF90EF9087
:101A7000DF90CF90BF90AF909F908F9008952FB739
:101A8000F89460913B2870913C2880913D2890917A
:101A90003E282FBF0895FC01DB0112968D919C9189
:101AA0001397828393838EEF90EB808391831496B8
:101AB0008C911497848315968C911597858316962F
:101AC0004D915D916D917C91199746835783608705
:101AD00071871A964D915D916D917C911D9742870A
:101AE0005387648775871E964D915D916D917C91AA
:101AF000519746875787608B718B52968C9152977E
:101B0000828B53964D915D916D917C915697438B4D
:101B1000548B658B768B57964D915D916D917C9131
:101B20005A97478B508F618F728F5B968D919C91E6
:101B3000838F948F08950895DC015996ED91FC915F
:101B4000309721F081E09581911101C080E00895E6
:101B5000DC015996ED91FC913097B9F08389948915
:101B6000A589B6894285538564857585841B950B47
:101B7000A60BB70B811520E89207A105B10538F037
:101B80008FEF9FE7A0E0B0E0089590E080E0089537
:101B9000DC0159968D919C91009739F0DC01ED9113
:101BA000FC910480F581E02D099490E080E0089597
:101BB000CF93DF931F92CDB7DEB76983DC01ED9140
:101BC000FC910280F381E02D41E050E0BE016F5FA7
:101BD0007F4F09950F90DF91CF9108950895EF926F
:101BE000FF920F931F93CF93DF937C01EB018B0147
:101BF000040F151FC017D10759F0D701ED91FC91C3
:101C00000480F581E02D6881C70109958993F2CFA1
:101C1000DF91CF911F910F91FF90EF9008950F9357
:101C20001F93CF93DF93EC018B018091C008E88173
:101C3000F9810480F581E02D86FD13C0612FCE016E
:101C40000995182FE881F9810480F581E02D602F36
:101C5000CE010995082FC801DF91CF911F910F91F7
:101C60000895CE010995082FE881F9810480F58156
:101C7000E02D612FCE010995182FEDCF0000609364
:101C8000C4088091C30887FFFCCF8091C4080895E1
:101C90006FEF84E29DE20C943E0E0F931F93CF935F
:101CA000DF93EC010E943F0D8B010E94480E8F3F95
:101CB00069F00E943F0D601B710B6C177D07A8F344
:101CC00080E0DF91CF911F910F91089581E0F9CFCE
:101CD000682F84E29DE20C943E0E8F929F92AF9209
:101CE000BF92CF92DF92EF92FF920F931F93CF9309
:101CF000DF93FC018085882319F081FF0EC0789462
:101D0000DF91CF911F910F91FF90EF90DF90CF90D7
:101D1000BF90AF909F908F90089580FFF1CF828405
:101D20009384A484B584C12CD12C760110E0940155
:101D3000A501B601C701A0E00E94DB3599F1217031
:101D400030E040E050E060E070E080E090E00E9431
:101D5000DB35D9F0D0E0C0E0103370F4C12FC69568
:101D6000C695C69580E2C89FE0011124C05FDB4F95
:101D7000812F8770C80FD11DCF01810F911DDC010C
:101D800052968C919881892B88839401A501B60184
:101D9000C70101E00E94C03549015A016B017C0175
:101DA0001F5FC5CF86849784A088B188C12CD12CB1
:101DB000760110E29401A501B601C701A0E00E94DE
:101DC000DB3509F49DCF217030E040E050E060E069
:101DD00070E080E090E00E94DB35D9F0D0E0C0E018
:101DE000103370F4C12FC695C695C695B0E2CB9F4F
:101DF000E0011124C05FDB4F812F8770C80FD11D18
:101E0000CF01810F911DDC0152968C919881892B15
:101E100088839401A501B601C70101E00E94C03585
:101E200049015A016B017C011F5FC4CF61E070E082
:101E3000FC0184810E94630C80913428882331F056
:101E40001092342884E29DE20C946D0E0895FC01FA
:101E50006F3F710581F1808581FD2DC06032710574
:101E60005CF581E090E002C0880F991F6A95E2F767
:101E700080959095092E000CAA0BBB0B42855385CB
:101E80006485758584239523A623B723828793874A
:101E9000A487B58782859385A485B585892B8A2BF0
:101EA0008B2B49F486859785A089B189892B8A2B4C
:101EB0008B2B09F4108608956052710981E090E03F
:101EC00002C0880F991F6A95E2F780959095092EB8
:101ED000000CAA0BBB0B468557856089718984234A
:101EE0009523A623B72386879787A08BB18BD2CF64
:101EF000FC016F3F7105E9F1603371051CF082E070
:101F00008087089580858160808760327105C4F480
:101F100081E090E002C0880F991F6A95E2F7092ED0
:101F2000000CAA0BBB0B4285538564857585842BF9
:101F3000952BA62BB72B82879387A487B587089507
:101F40006052710981E090E002C0880F991F6A9584
:101F5000E2F7092E000CAA0BBB0B4685578560895A
:101F60007189842B952BA62BB72B86879787A08BFF
:101F7000B18B0895E0ECF8E020812E7F2083FC01F6
:101F800017820895E0ECF8E082818E7F82830895C5
:101F9000E0ECF8E0828181608283089570E060E087
:101FA0008FE00E94FD0B61E070E08FE00C949F0BCE
:101FB00062E070E08FE00E949F0B8BE080931A2814
:101FC0000895CF93DF938EE00E94400CEC010E94B5
:101FD0003F0D2091182830911928AB01421B530B5B
:101FE0004630510520F420911A282B3040F021E092
:101FF00030E0209316283093172810921A28609307
:10200000182870931928DD2730911A28CE01032E45
:1020100002C0880F991F0A94E2F760911628709108
:102020001728862B972B8C279D2780931628909313
:1020300017283A30A1F4E0912C28F0E0E55EF74D46
:10204000AC0155954795408320912C282F5F2F7028
:1020500040912B28421719F080FD20932C283F5FD8
:1020600030931A28DF91CF9108951F93CF93DF9378
:10207000182F61E070E00E94630CC3ECD0E0CE0149
:102080000197F1F770E060E0812F0E94630C2197C7
:10209000F1F7DF91CF911F91089540910C29642FA2
:1020A00070E030E020E086B190E080959095862346
:1020B0009723892B41F021503109A9F780E0089539
:1020C00021503109D9F386B18423D1F750910B29DE
:1020D000652F70E096B19523E9F796B1942379F7CF
:1020E00026B130E02095309526233723232BC1F7E6
:1020F0008F5FF0CFCF93462F4150550B91E001C039
:10210000990F4A95EAF7A091352ACA2FC095B09148
:102110000B2940910C2950E070E0EB2FF0E0282FC4
:10212000292319F125B12A2B25B926B12B23E9F74B
:1021300026B130E02095309524233523232B09F058
:102140007F5F26B130E0209530952E233F23232B4F
:10215000C1F7969521F79091362A890F8093362AF8
:1021600081E0671380E0CF91089525B12C23DCCF67
:1021700040910C29642F70E026B130E02095309515
:1021800026233723232BC1F79091352A25B187FFCA
:1021900016C0922B95B996B19423E9F740910B297B
:1021A00096B19423E9F750E026B130E020953095C0
:1021B00024233523232BC1F767E00C947A109095E4
:1021C0009223E8CFFF920F931F93CF93DF93F82EC4
:1021D000D62FC72F8A018CE40E94B81066E08F2D9D
:1021E0000E947A1068E08D2F0E947A1068E08C2F90
:1021F0000E947A10E801045C1F4F68E089910E94F8
:102200007A10C017D107C9F7C091362AC19568E086
:102210008C2F0E947A10C093362A85B19091352A6E
:10222000892B85B9DF91CF911F910F91FF90089570
:1022300078940C94D80F0E94CE0FF8940895CF9301
:102240000E941B110E944D10C82F0E9418118091EE
:102250001528982F90952091142892239093142854
:10226000C73029F0C930B1F4982B90931428880F07
:1022700049F0809315288091152890E091958195DB
:10228000910906C081E0809315288091142890E080
:10229000CF91089581E0EDCFEF92FF920F931F93BE
:1022A000CF93DF93D82F7B010E941B1110E000E039
:1022B0000E151F059CF48D2F0E94B810C82F811198
:1022C0000AC00E9418118C2FDF91CF911F910F919E
:1022D000FF90EF9008950F5F1F4FEACF0E941811F3
:1022E00085B19091352A892B85B9C1E0ECCFCF9289
:1022F000DF92EF92FF920F931F93CF93DF936C01C6
:102300007B0187E68093362A0E941B11D0E0C0E053
:10231000CE15DF05A4F487010C1B1D0B0C33110532
:1023200014F00CE310E0AE01435F564DBE016C0D9E
:102330007D1D802F0E94E210C00FD11FE9CF0E94A7
:10234000181190910C2986B18923E9F7DF91CF917B
:102350001F910F91FF90EF90DF90CF900895AF9273
:10236000BF92CF92DF92EF92FF920F931F93CF9382
:10237000DF937C016B010E944D1081110EC081EA38
:1023800091E0DF91CF911F910F91FF90EF90DF903F
:10239000CF90BF90AF900C94600BC114D10421F08A
:1023A00083E090E0F6010995F7010995EC01F7014A
:1023B0000995DC2FCC278C010C0F1D1FF701099507
:1023C000EC01892B11F4C0E0D1E0C114D10419F063
:1023D000CE01F60109958DE0A82E89E2B82EC5013F
:1023E0008D5099428C179D0734F4F7010995F5013A
:1023F00081935F01F4CFCE01800F911D8130914018
:1024000098F5BE01C8010E947711C114D10421F0D2
:1024100083E090E0F6010995F7010995EC01892B1D
:1024200031F6F7010995C82FF701099560E07C2F77
:10243000EC01C60FD71F2097B9F00E941B1187E649
:102440008093362A4DEF59E2BE0180E00E94E210EF
:10245000DF91CF911F910F91FF90EF90DF90CF9080
:10246000BF90AF900C941811DF91CF911F910F91F5
:10247000FF90EF90DF90CF90BF90AF9008955F9264
:102480006F927F928F929F92AF92BF92CF92DF9284
:10249000EF92FF920F931F93CF93DF937C016B0119
:1024A0003C018AEF781A870160E2962E7EE2872E41
:1024B000A12CB12CD601AA0DB11DEC91CB2DD0E0F1
:1024C000E1110EC0EDE0F9E280E0B81609F455C064
:1024D0009081992109F44FC09FE391938F5FF5CFCD
:1024E000EE0FFF0BE156FF4F459154919A01E1E049
:1024F000EB0DF0E082E08B0D90E063E06B0D70E09F
:1025000054E0552EB50CC35FD64DE35FF64D835FA7
:10251000964D635F764D188237FD14C0432F459565
:102520004E734083A901E4E055954795EA95E1F79C
:102530004E73FC014083220F331F2E73FB01208357
:10254000A394B8CF532F559555955F71508355E09F
:10255000359527955A95E1F72F71FC0120834F712E
:10256000FB0140838C918A3659F7EB2DF0E0E45F54
:10257000F64D8082E5CF90E2B0CFBE01C8010E9447
:102580007711139596946016710609F091CFCE01DC
:102590008E0D9F1DDF91CF911F910F91FF90EF90B6
:1025A000DF90CF90BF90AF909F908F907F906F9073
:1025B0005F900895CF93DF93FB0122813381DC018B
:1025C00012962D933C9313974481558166817781B0
:1025D00014964D935D936D937C9317974085518529
:1025E0006285738518964D935D936D937C931B97CD
:1025F0001C96EF012C969C01275E3F4F49914D930D
:10260000A217B307D9F7218D328DFC01218F328FAC
:10261000DF91CF910895CF930E941B1180E00E941B
:10262000B810C82F85B19091352A892B85B90E94A1
:1026300018118C2FCF910895DC01ED91FC91008849
:10264000F189E02D23E030E00994FC0101900020A5
:10265000E9F73197AF01481B590BBC0188E39CE2B5
:102660000C940E0ACF93DF930E94600BEC0186E37B
:1026700091EB0E9425138C0F9D1FDF91CF91089540
:10268000CF92DF92EF92FF920E943F0D6B017C018F
:1026900028E8C20E23E1D21EE11CF11C88E39CE273
:1026A0000E94A50A892B39F40E943F0D6C157D0507
:1026B0008E059F0598F388E39CE20E94830A7C01C3
:1026C00097FF04C089EA91E00E943213C701FF908E
:1026D000EF90DF90CF9008950C944013CF9384EC4B
:1026E00090E00E94321388E39CE20E947B0BCAE0D8
:1026F00062E070E08BEF0E944C1162E370E080E0DA
:1027000090E00E940F0DC15099F762E070E08FE7F2
:102710000E944C1168EE73E080E090E0CF910C9441
:102720000F0D4F925F926F927F928F929F92AF9216
:10273000BF92CF92DF92EF92FF920F931F93CF93AE
:10274000DF93CDB7DEB76497CDBFDEBF0E943F0DEC
:102750006B017C0125E5C20ED11CE11CF11C8E0130
:102760000F5F1F4F80E1D8011D928A95E9F70E9403
:102770003F0D6C157D058E059F0528F586B190915E
:102780000C29982330E020E011F022E030E0909115
:102790000B298923E1E0F0E011F4F0E0E0E0E20F42
:1027A000F31FEE0FFF1FEE0FFF1FE00FF11F8081E1
:1027B0009181A281B3810196A11DB11D8083918376
:1027C000A283B383D4CFC980DA80EB80FC808D8074
:1027D0009E80AF80B8848C0C9D1CAE1CBF1C89856C
:1027E0009A85AB85BC85898B9A8BAB8BBC8BBC01E6
:1027F000CD01680D791D8A1D9B1D0D851E852F85B8
:102800003889600F711F821F931F0E94F9322DECCF
:102810003CEC4CEC5DE30E947E342B013C01C50195
:10282000B4010E94F9324B015C0120E030E040E04D
:1028300051E4C301B2010E94583320E030E442E089
:1028400054E40E94EA349B01AC01C501B4010E942A
:10285000EA344B015C0123E333E343E75FE30E9487
:102860005C3587FD5AC020E030E040EA5FE3C501F7
:10287000B4010E94F23218160CF44FC069897A89AB
:102880008B899C896C0D7D1D8E1D9F1D0E94F932C8
:102890006B017C0120E030E040EC52E4C301B20166
:1028A0000E94583320E030E048E454E40E94EA34C7
:1028B0009B01AC01C701B6010E94EA346B017C01A7
:1028C00026E636E646E65FE30E945C3587FD25C0D6
:1028D0002DEC3CEC4CE85FE3C701B6010E94F232FC
:1028E0001816DCF082EB90E00E9432138FEB90E040
:1028F0006496CDBFDEBFDF91CF911F910F91FF9006
:10290000EF90DF90CF90BF90AF909F908F907F908F
:102910006F905F904F900C94321380EA90E0E4CF78
:102920008F929F92AF92BF920F931F93CF93DF939B
:10293000CDB7DEB7A197CDBFDEBF19A2423008F4F4
:102940004AE08E010F5D1F4F842E912CB12CA12CDB
:10295000A50194010E947535E62FB901CA01EA303C
:10296000DCF4E05DD801EE938D01232B242B252B85
:1029700079F790E080E0109719F0CD010E942513BF
:10298000A196CDBFDEBFDF91CF911F910F91BF9078
:10299000AF909F908F900895E95CE4CFCF92DF9243
:1029A000EF92FF92CF93DF936B017C016DE288E39E
:1029B0009CE20E940F0BEC0166277727CB016C1974
:1029C0007D098E099F094AE00E9490148C0F9D1F7B
:1029D000DF91CF91FF90EF90DF90CF900895BC01F1
:1029E000990F880B990B97FF06C00E94CE148FE9B0
:1029F00091E00C9432134AE00E949014F8CFFC014D
:102A000024813581FB014481558124173507A0F0CD
:102A1000FC0180819181009779F0FB0160817181D7
:102A20006115710549F0241B350B820F931F0E941D
:102A3000F83721E0892B09F020E0822F08951F93B9
:102A4000CF93DF93182FEB0190E080E00E941634C3
:102A5000863008F080E041E050E002C0440F551F8E
:102A60008A95E2F790E080E0FC01EE53FE4FE4919E
:102A70002E2F30E02095309524233523232BA1F4ED
:102A8000E07CE03C11F0E1130FC0FC01ED53FE4F80
:102A9000E491EC171D0641F48C539E4FFC01849188
:102AA000DF91CF911F91089503968F3AF2E09F072F
:102AB000D9F680E0F5CF0F931F93CF93DF93CDB777
:102AC000DEB76397CDBFDEBF83E1E9E7F1EBDE015F
:102AD000119601900D928A95E1F7BE016F5F7F4FCD
:102AE00080E098E00E943F121A8610E2188722E3E5
:102AF0002F838827BE016F5F7F4F9A5F0E943F122E
:102B000069E371EB0E943F12188723E32F83882724
:102B1000BE016F5F7F4F9A5F0E943F1261E471EBCD
:102B20000E943F12882769E471EB9A5F0E943F126E
:102B30008C0190E080E00E941634863008F080E03E
:102B400023E0829FB0011124625A7F44C8010E9491
:102B50003F1262E571EB0E943F1288276EE671EB2F
:102B60009A5F0E943F120EE510EB60E571EB0E9448
:102B70003F12B8010E943F120D5F1F4F20EB00373C
:102B8000120799F76396CDBFDEBFDF91CF911F91FA
:102B90000F9108958F929F92AF92BF92EF92FF9202
:102BA0000F931F93CF93DF930E943F0D4B01CBE810
:102BB000D1E090912C2880912B28981799F1E091E1
:102BC0002B28F0E0E55EF74D808190912B289F5FE8
:102BD0009F7090932B28682F70E061157105C1F5E7
:102BE0008091322890913328881A990A8091302850
:102BF000909131288815990508F510922F2849EEF3
:102C0000841643E0940680F480912D288095DF910E
:102C1000CF911F910F91FF90EF90BF90AF909F9039
:102C20008F90089580E0D7CF80912D2890912E2805
:102C3000882780932D2890932E2805C089EE88162A
:102C400083E0980688F780912F288111E0CFDCCFB0
:102C5000803E09F454C0803F09F45BC08A3A09F011
:102C60005EC00E94CE0FCE010197F1F770E060E0E8
:102C70008EE00E94FD0B61E070E08EE00E949F0BF1
:102C80000E94D80F0AE010E098EEE92E95E0F92EA8
:102C90008FE00E94400C892BD9F38FE00E94400CFA
:102CA000892BD9F7F694E79462E070E0E0FC07C066
:102CB00070E060E08EE00E94FD0B61E070E08EE06D
:102CC0000E949F0B0150110919F762E070E08EE03D
:102CD0000E949F0B8EE00E94400C892BD9F78FE059
:102CE0000E94400C892BD9F78FE00E94400C892B61
:102CF000D9F38EE00E94400C892BB1F35ACF80911A
:102D00002D2890912E28906880932D2890932E281E
:102D100050CF80912D2890912E289064F5CF00916E
:102D20002D2810912E2817FD706E6431710509F45D
:102D3000EAC008F07DC06131710509F4EAC0623172
:102D4000710509F4E3C0603740EE740709F408C167
:102D500008F0A1C06A3540EE740709F40EC108F00E
:102D600089C06636710509F4DDC0CFE26A3440EEF1
:102D7000740759F17801EE248CE0F82215FD06C0A5
:102D8000E114F10409F4DCC014FFDAC080E80E9409
:102D90001F15C82FEF28C9F0803209F4E9C08F331E
:102DA00009F4EDC08FE38C0F8C3008F0D5C06C2F88
:102DB0006F7009F4D1C000271073012B09F4C9C04A
:102DC000615090E080E00E941E3480912F288C1783
:102DD00021F0809232289092332820912D28309132
:102DE0002E2836FFC0932F2883E290E0809330286E
:102DF0009093312880912F288F3EA1F44091322862
:102E00005091332884EF91E0841B950B880D991D18
:102E1000843C49E0940710F484EC99E080933028D6
:102E200090933128222720932D2830932E2865C097
:102E3000613140EE740709F46FC0643180EE7807A9
:102E400039F06935710509F07ECF80E092E002C06B
:102E500080E098E016FF63C08095909580239123D1
:102E600080932D2890932E2880912D2890912E28A4
:102E70009F734ACF6B3680EE780709F475C06C36C5
:102E800040EE740709F46CC0693680EE780709F0EB
:102E900071CF80E821C0643740EE740709F462C046
:102EA00058F4613740EE7407E9F1623780EE780735
:102EB00009F060CF84E010C06A3740EE740709F46F
:102EC0004DC06D3780EE780709F450C088E0653753
:102ED00040EE740709F04ECF80923228909233284A
:102EE00090E016FF47C080959095802391238093B2
:102EF0002D2890932E2810922F2880912D28909184
:102F00002E289F7396CE80E094E0A4CF80E091E0DD
:102F1000A1CF80E090E19ECF80E090E29BCF802B1C
:102F2000912B9ECFC80188279C70892B09F4B1CFC3
:102F3000C80188279073892B09F4ABCFCFEE45CF1A
:102F4000C80188279370892B11F080E420CF80E09E
:102F50001ECF80E4C82739CFCF7137CF80E2BCCFF6
:102F600080E4BACF81E0B8CF82E0B6CF80E1B4CFC1
:102F70008FEFB2CF802B912BBACFCAE026CFCFE70D
:102F800024CF0F931F93CF93DF93EC018881998116
:102F9000009759F02A813B812617370730F081E0EE
:102FA000DF91CF911F910F9108958B016F5F7F4F3C
:102FB0000E941237009759F0888399830A831B83F4
:102FC0002C813D81232B59F7FC011082E8CF80E052
:102FD000E7CFCF93DF93EC0188819981009711F0BF
:102FE0000E948936188219821C821D821A821B82D5
:102FF000DF91CF910895CF92DF92EF92FF920F93DE
:103000001F93CF93DF93EC016B01FB010190002034
:10301000E9F731978F01061B170BD1F0EC80FD808B
:10302000E00EF11EB7010E94C1178823D9F0288154
:1030300039818C819D81A801B601820F931F0E9466
:10304000E437EC82FD82E881F981EE0DFF1D1082EC
:10305000CE01DF91CF911F910F91FF90EF90DF9004
:10306000CF900895CE010E94E917F2CFEF92FF9220
:103070000F931F93CF93DF93EC017B018A01BA0179
:103080000E94C11781110BC0CE010E94E917CE0129
:10309000DF91CF911F910F91FF90EF9008950C83D6
:1030A0001D83A801B701888199810E94E437E881D6
:1030B000F9818C819D81E80FF91F1082E8CFCF93B1
:1030C000DF93EC01FB018617970749F0608171815E
:1030D0006115710541F0448155810E943618CE0179
:1030E000DF91CF9108950E94E917F9CFFC0110827A
:1030F000118212821382148215820C945F18FC01D3
:103100001082118212821382148215826115710558
:1031100051F0FB0101900020E9F73197AF01461B08
:10312000570B0C9436180895FC018081918100970B
:1031300011F00C94893608950C948936EF92FF9221
:103140000F931F93CF93DF93EC017B018A011A82C7
:103150001B8288EE93E0A0E0B0E08C839D83AE8379
:10316000BF8388E291EB888399838DE190E00E9490
:10317000ED35898F9A8F009779F02DE1F701DC0109
:1031800001900D922A95E1F74CE050E0B801CE0194
:103190000C960E940838188EDF91CF911F910F91E5
:1031A000FF90EF900895CF92DF92EF92FF920F93EE
:1031B000FC01C12CB9E0DB2EBDE3EB2EF12CC0826B
:1031C000D182E282F3821482158281E090E08683CC
:1031D0009783C0900028D0900128E0900228F090BA
:1031E0000328F694E794D794C79490E04C155D05B6
:1031F0006E057F0540F4F694E794D794C7949F5FDB
:103200009630A1F797E004600187892F8095A82F59
:10321000A170B0E084E0AA0FBB1F8A95E1F791622C
:103220009A2B80E0232B09F480E4982B90870F9150
:10323000FF90EF90DF90CF9008950F931F93CF935F
:10324000DF93CDB7DEB72A97CDBFDEBF8C01FC017F
:10325000878181110CC01086118612861386148610
:10326000158616861786108A118A81E087838091D9
:10327000E305F8019681892B8093E30561E070E016
:1032800083810E94CE0B61E070E0F80184810E948E
:10329000CE0B8091C10884608093C1088091C008E2
:1032A00081628093C0084091662D5091672D609196
:1032B000682D7091692D00916A2D20916C2D3091AF
:1032C0006D2DCE0101960E94D31899858A85909321
:1032D000C0088093C1082A96CDBFDEBFDF91CF9191
:1032E0001F910F9108955F926F927F928F929F929C
:1032F000AF92BF92CF92DF92EF92FF920F931F9304
:10330000CF93DF93CDB7DEB76297CDBFDEBF3C0171
:103310000B871C872D873E87042F4F87588B698B1F
:103320007A8B29893A894B855C856D857E85CE01AE
:1033300001960E94D31859841A85D30118968C914E
:10334000882319F081FF18C0F8945092C008109398
:10335000C1086296CDBFDEBFDF91CF911F910F9163
:10336000FF90EF90DF90CF90BF90AF909F908F90A5
:103370007F906F905F90089580FFE7CFF301828484
:103380009384A484B584C12CD12C7601B0E094013F
:10339000A501B601C701A0E00E94DB35A9F12170AB
:1033A00030E040E050E060E070E080E090E00E94BB
:1033B000DB35E9F090E080E0B03370F48B2F869538
:1033C00086958695F0E28F9FC0011124805F9B4F08
:1033D0002B2F2770820F911DFC01408193012B0F31
:1033E000311DF901428BFC012081287F208394014B
:1033F000A501B601C70101E00E94C03549015A018B
:103400006B017C01BF5FC3CFD3011E968D909D9051
:10341000AD90BC905197C12CD12C7601B0E29401B3
:10342000A501B601C701A0E00E94DB3509F48DCFEC
:10343000217030E040E050E060E070E080E090E03B
:103440000E94DB35E9F090E080E0B03370F48B2F20
:10345000869586958695E0E28E9FC0011124805F57
:103460009B4F2B2F2770820F911DFC0140819301F0
:103470002B0F311DF901428BFC012081287F208315
:103480009401A501B601C70101E00E94C0354901C0
:103490005A016B017C01BF5FC2CF0F931F93CF9383
:1034A000DF93EC0180913428811117C081E0809373
:1034B00034280091D32C1091D42C2091D52C30910C
:1034C000D62C4091D72C5091D82C6091D92C70914A
:1034D000DA2C84E29DE20E94731970E060E08C8136
:1034E000DF91CF911F910F910C94630C8F929F925B
:1034F000AF92BF92FF920F931F93CF93DF93EC0194
:10350000F62E49015A018E81882389F08F81988592
:103510009C012F5F3F4F2F8338878230924018F4F1
:103520000E94480EF3CFCE010E94160F1E82CE01DC
:103530000E944D1A8CE291E00E944D0E8F2D806406
:103540000E94680E08E110E0D501C401002E04C0FD
:10355000B695A795979587950A94D2F70E94680E1D
:1035600008501109083F8FEF180771F785E9FF2010
:1035700021F028E087E8F2128FEF0E94680E10E039
:103580000E94480E8A8787FF04C01F3F11F01F5F0B
:10359000F7CFDF91CF911F910F91FF90BF90AF9028
:1035A0009F908F900895AF92BF92CF92DF92EF924B
:1035B000FF920F931F93CF93DF93EC016901C80132
:1035C000820F931F8130924050F58E81882379F0CD
:1035D00088819981AA81BB8184179507A607B707BF
:1035E00031F48F819885C816D90608F042C0488307
:1035F00059836A837B838B85833039F089E0440F5C
:10360000551F661F771F8A95D1F79A01AB0161E1BB
:10361000CE010E94761A882389F083E08D83CE0143
:103620000E94160F80E0DF91CF911F910F91FF90C4
:10363000EF90DF90CF90BF90AF9008950E943F0D24
:103640005B010E94480E8A878F3F69F40E943F0DFC
:103650006A197B096D327140A0F38FE08D83CE0132
:103660000E94160FDCCF8E3F89F41F82188681E0FE
:103670008E838F8198858C159D0550F40E94480E8D
:103680008F81988501968F839887F3CF8DE0E6CF61
:103690006701E00EF11E0E94480EF60181936F0152
:1036A000EE15FF05C1F78F819885080F191F0F834D
:1036B00018878985882319F001151240A0F08E81A2
:1036C000882389F08F8198859C012F5F3F4F2F833E
:1036D00038878230924018F40E94480EF3CFCE0112
:1036E0000E94160F1E8281E09ECFCF92DF92EF9252
:1036F000FF920F93CF93DF93EC01690182E14115B3
:1037000051056105710599F08B85833039F089E0A9
:10371000440F551F661F771F8A95D1F79A01AB0199
:1037200068E1CE010E94761A882319F084E08D8327
:103730002DC08EEF0E94680E76018EEFD81AF70129
:1037400081917F010E94680EEC14FD04C1F78FEF98
:103750000E94680E8FEF0E94680E0E94480E8A87B2
:103760008F71853071F4011116C0CE010E94160FC1
:1037700081E0DF91CF910F91FF90EF90DF90CF909C
:10378000089581E18D83CE010E94160FCE010E9423
:10379000160F80E0EECF88E592E00E944D0E811179
:1037A00002C085E1C4CF20E030E0A9016DE0CE0188
:1037B0000E94761A882311F084E1B9CF0E94480E46
:1037C0008111FACFD2CF0F934091352850913628EE
:1037D00060913728709138284115510561057105B0
:1037E00099F0082F28E33AE28091332A9091342A05
:1037F0000E94751B882349F01092352810923628B4
:10380000109237281092382881E00F9108950F9375
:10381000CF93C82F8091372A811105C0C1E08C2F2A
:10382000CF910F91089540910A2850910B286091F3
:103830000C2870910D280C2F28E33AE28091332A4E
:103840009091342A0E94751B811102C0C0E0E7CF1D
:10385000CC2321F381E00E94E31B8823B9F310926B
:10386000372ADDCF8F929F92AF92BF92EF92FF9255
:103870000F931F93CF934B015C01C42F80910A28B3
:1038800090910B28A0910C28B0910D2888159905CE
:10389000AA05BB0551F181E00E94071C81110BC0F4
:1038A00080E0CF911F910F91FF90EF90BF90AF906C
:1038B0009F908F90089588E3E82E8AE2F82E00E02A
:1038C00012E030E020E0B501A4018091332A90910C
:1038D000342A0E94D31A882319F380920A289092DE
:1038E0000B28A0920C28B0920D284091372A4C2B1F
:1038F0004093372A81E0D5CF8F929F92AF92BF92AB
:10390000CF92DF92EF92FF92CF932BED3CE2209388
:10391000332A3093342A882309F46DC040E060E0F4
:1039200070E0CB010E94321C81110BC080E0CF916E
:10393000FF90EF90DF90CF90BF90AF909F908F90CF
:1039400008958091F62B8F7789F78091022C9091C2
:10395000032CA091042CB091052C84369105A1056F
:10396000B10520F3C090FE2BD090FF2BE090002CEF
:10397000F090012CC114D104E104F104B9F240E04B
:10398000C701B6010E94321C882381F28091432A2C
:103990009091442A8115924049F6A091482AAA2381
:1039A00029F26091462A7091472A6115710509F440
:1039B000BDCF2091452A222309F4B8CFA093F92C3A
:1039C0002093EB2C90E080E030E0E1E0F0E0C82FC5
:1039D000AF01082E02C0440F551F0A94E2F72417C6
:1039E000350769F041E0480F01968930910579F774
:1039F0004093F42C9BCFC12CD12C7601C0CF809367
:103A0000F42C20914E2A30914F2A50E040E02115AD
:103A1000310541F420915C2A30915D2A40915E2A63
:103A200050915F2A2093EC2C3093ED2C4093EE2C98
:103A30005093EF2C46015701860E971EA11CB11C16
:103A40008092FA2C9092FB2CA092FC2CB092FD2C30
:103A5000E091492AF0914A2AE093FF2CF093002D3F
:103A6000B0E00E943234DC01CB01880D991DAA1D03
:103A7000BB1D8093012D9093022DA093032DB09335
:103A8000042D25E0EE0FFF1F2A95E1F7E150FE4FD0
:103A9000EF2FFF27E6958E0F9F1FA11DB11D80936D
:103AA000F52C9093F62CA093F72CB093F82C8090E3
:103AB0004B2A90904C2AB12CA12C8114910441F4F2
:103AC0008090582A9090592AA0905A2AB0905B2A48
:103AD000C81AD90AEA0AFB0AC80CD91CEA1CFB1C42
:103AE00004C0F694E794D794C794CA95D2F7C092CD
:103AF000F02CD092F12CE092F22CF092F32C85EF86
:103B0000C8168FE0D806E104F10428F48CE0809315
:103B1000FE2C81E00CCF80E125EFC2162FEFD206FC
:103B2000E104F104A0F38091642A9091652AA091A8
:103B3000662AB091672A8093012D9093022DA0935D
:103B4000032DB093042D80E2E2CF4F925F926F92EB
:103B50007F928F929F92AF92BF92CF92DF92EF921D
:103B6000FF920F931F93CF93DF93EC0142305105E7
:103B70006105710590F480E0DF91CF911F910F9165
:103B8000FF90EF90DF90CF90BF90AF909F908F907D
:103B90007F906F905F904F90089589859A85AB854F
:103BA000BC850196A11DB11D84179507A607B7070F
:103BB00010F3CB88DC88ED88FE888F89803109F08E
:103BC00042C0BB27A72F962F852F480159012A01F4
:103BD0003B01C80ED91EEA1EFB1E80910A28909157
:103BE0000B28A0910C28B0910D28C816D906EA061A
:103BF000FB0699F58F898031C1F5B301A2015527E4
:103C000066277727440F551F485C554DFA0180827F
:103C100091828091372A81608093372A8A89823005
:103C200080F08D819E81AF81B8858C0D9D1DAE1D6C
:103C3000BF1D8093352890933628A0933728B093E2
:103C4000382881E099CFDB01CA01E7E0B695A79556
:103C500097958795EA95D1F7B8CF40E0C701B601AF
:103C60000E94321C8111C6CF86CFB301A2014F77CB
:103C7000552766277727440F551F440F551F485C6B
:103C8000554DFA0180829182A282B382C2CF8F9277
:103C90009F92AF92BF92CF92DF92EF92FF920F93DB
:103CA0001F93CF93DF93FC0181859285A385B48513
:103CB0000196A11DB11D84179507A607B70770F4DB
:103CC00080E0DF91CF911F910F91FF90EF90DF90F7
:103CD000CF90BF90AF909F908F90089583889488E5
:103CE000A588B6888789803189F5BB27A72F962FAD
:103CF000852FE9016A017B018F01BC01CD01680DAF
:103D0000791D8A1D9B1D80900A2890900B28A090F9
:103D10000C28B0900D2886169706A806B90601F55E
:103D2000F8018789803111F5DD24EE24FF24F601A6
:103D3000EE0FFF1FE85CF54D80819181B0E0A0E0BF
:103D400088839983AA83BB8381E0BBCFDB01CA014F
:103D5000C7E0B695A79597958795CA95D1F7C9CF2E
:103D600040E00E94321C8111DBCFAACFE894C7F853
:103D7000DD24EE24FF24F601EE0FFF1FEE0FFF1FE0
:103D8000E85CF54D80819181A281B381BF70D8CF6D
:103D90004F925F926F927F92AF92BF92CF92DF92DB
:103DA000EF92FF920F931F93CF93DF9300D000D039
:103DB000CDB7DEB78C0149835A836B837C8359016D
:103DC000C12CD12C7601412C82E0582E612C712C13
:103DD00049815A816B817C819E012F5F3F4FC801D1
:103DE0000E94471E882339F1F8018585A3019201BD
:103DF00004C0220F331F441F551F8A95D2F7DA01E2
:103E0000C901C80ED91EEA1EFB1E49815A816B8169
:103E10007C818789803109F188EF9FEFAFEFBFE0A8
:103E2000481759076A077B0798F2F501C082D182CB
:103E3000E282F38281E02496CDBFDEBFDF91CF9195
:103E40001F910F91FF90EF90DF90CF90BF90AF90B8
:103E50007F906F905F904F90089588EF9FEFA0E064
:103E6000B0E0DECFCF93DF93FC012581222321F048
:103E700080E0DF91CF910895EC018091FE2C80319C
:103E800059F582E08583178A108E118E128E8091EB
:103E9000FF2C9091002DB0E0A0E025E0880F991F45
:103EA000AA1FBB1F2A95D1F7838B948BA58BB68B4A
:103EB00087EE9CE28B8F9C8F81E08C831E821F8219
:103EC000188619861A861B861C861D861E861F86E6
:103ED000188A198A1A8ACDCF803251F683E08583F9
:103EE0004091012D5091022D6091032D7091042D70
:103EF000478B508F618F728F9F012D5E3F4F87EEF2
:103F00009CE20E94C81E8111D3CFB2CF8F929F92A4
:103F1000AF92BF92CF92DF92EF92FF920F931F93D7
:103F2000CF93DF93EC018D8181110EC080E0DF9192
:103F3000CF911F910F91FF90EF90DF90CF90BF90A6
:103F4000AF909F908F9008950B891C892D893E8991
:103F5000041715072607370748F34A015B0182302B
:103F600031F48A869B86AC86BD8681E0E0CF8114E1
:103F70009104A104B10449F41E821F821886198697
:103F80001A861B861C861D86F0CF0A851B852C850C
:103F90003D85EB8DFC8D858590E00996B901A801E2
:103FA0004150510961097109082E04C07695679541
:103FB000579547950A94D2F775016401E1E0CE1A4E
:103FC000D108E108F10804C0F694E794D794C794A7
:103FD0008A95D2F7C416D506E606F70620F0012B1F
:103FE000022B032B11F58F89988DA98DBA8D8E83A5
:103FF0009F83A887B9878E010A5F1F4FC114D10420
:10400000E104F10409F4ADCF4E815F8168857985C3
:1040100098018B8D9C8D0E94471E91E0C91AD10892
:10402000E108F1088111EACF81CFC41AD50AE60A66
:10403000F70AE1CF3F924F925F926F927F928F92F9
:104040009F92AF92BF92CF92DF92EF92FF920F9327
:104050001F93CF93DF93CDB7DEB72C97CDBFDEBFD5
:104060005C01DC015B968D909C905C9716964D9060
:104070005D906D907C901997411451046104710416
:1040800009F468C0BFEF4B1A5B0A6B0A7B0A312C3C
:10409000F40181859285A385B4859C01AD012F5FD4
:1040A0003F4F4F4F5F4F29873A874B875C8773019C
:1040B00062011D821E821F821886F401818592850D
:1040C000A385B4852D813E814F81588528173907F6
:1040D0004A075B0708F056C089859A85AB85BC8581
:1040E0008C159D05AE05BF0550F482E0C82ED12C7D
:1040F000E12CF12C92E0492E512C612C712C9E0167
:104100002F5F3F4FB701A601C4010E94471E8823BD
:10411000C9F189819A81AB81BC81892B8A2B8B2B38
:1041200009F1260137019FEF491A590A690A790AEC
:104130002D813E814F8158852F5F3F4F4F4F5F4FFD
:104140002D833E834F8358873FEFC31AD30AE30A78
:10415000F30AB3CFF401408051806280738033242E
:10416000339496CFC414D504E604F70409F70FEF8F
:104170001FEF2FEF3FE0B701A601C4010E94A51D6C
:10418000811116C080E02C96CDBFDEBFDF91CF91AC
:104190001F910F91FF90EF90DF90CF90BF90AF9065
:1041A0009F908F907F906F905F904F903F90089579
:1041B000D50116964D915D916D917C9119974115A0
:1041C00051056105710539F097018601C4010E940E
:1041D000A51D8823B9F2D5011696CD92DD92ED92F8
:1041E000FC921997332051F0D701C6010196A11D09
:1041F000B11DF40180839183A283B383F501878984
:10420000908DA18DB28D892B8A2B8B2B39F48481D3
:10421000C78AD08EE18EF28E80688483F501848116
:104220008062848381E0AFCF2F923F924F925F9262
:104230006F927F928F929F92AF92BF92CF92DF92B6
:10424000EF92FF920F931F93CF93DF93EC015B01EB
:104250002A018D81811115C08FEF9FEFDF91CF91E2
:104260001F910F91FF90EF90DF90CF90BF90AF9094
:104270009F908F907F906F905F904F903F902F9086
:1042800008958C8180FFE8CF0B891C892D893E8998
:104290004A855B856C857D85C201B0E0A0E0680140
:1042A0007901C41AD50AE60AF70AC816D906EA0639
:1042B000FB0618F42801441A550A42011E0126E0A3
:1042C000220E311C8114910409F4B3C04A855B8528
:1042D0006C857D856A0181E0D8228B8D9C8D8A0159
:1042E0009B01E9E03695279517950795EA95D1F753
:1042F000ED81E230E1F5FC01628D738D848D958D49
:10430000600F711F821F931F612C22E0722E6C18A8
:104310007D088614970408F434012C8126FD04C01E
:104320006114F2E07F0671F400910A2810910B28C5
:1043300020910C2830910D280617170728073907F8
:1043400009F053C040E00E94321C882309F484CF56
:10435000C601885C954DD5019C01260D371DFC01D9
:104360002E173F0709F460C041914D93F9CFFC012E
:1043700074807A947022C114D10471F471100CC04D
:10438000452B462B472B39F58F89988DA98DBA8DF2
:104390008E839F83A887B987EB8DFC8D6E817F818B
:1043A000888599856250710981099109258504C024
:1043B000660F771F881F991F2A95D2F706851785E4
:1043C00020893189600F711F821F931F670D711D36
:1043D000811D911D99CF4E815F81688579859101FD
:1043E0000E94471E8111D8CF37CF750183019601F6
:1043F000AB01BC018091332A9091342A0E94D31AD8
:10440000882309F429CFA60CB71C8A859B85AC8527
:10441000BD85860D971DA11DB11D8A879B87AC8721
:10442000BD87861897084ECF281B390BA20EB31EE6
:10443000ECCFC20113CFCF93DF931F92CDB7DEB77E
:1044400041E050E0BE016F5F7F4F0E941421019751
:1044500031F4898190E00F90DF91CF9108958FEF33
:104460009FEFF9CFFC01818D928D009711F00C9494
:104470001B228FEF9FEF08958EE69DE20E94A80D0C
:10448000892B21F08EE69DE20C9432228FEF9FEF74
:1044900008950F931F93CF93DF93EC01898D9A8D2D
:1044A00010E000E0009799F00E941B228C010F3F62
:1044B000100769F0898D9A8DFC01428553856485CA
:1044C000758541505109610971090E94861FC80113
:1044D000DF91CF911F910F9108951F93CF93DF9399
:1044E000FC0125812223D1F1162FEC01848187FF65
:1044F0002AC0668577858089918941E00E94321CB7
:10450000882361F1EA8980E2E89FF0011124E85CE8
:10451000F54D309719F18D81823040F48B899C895B
:10452000AD89BE89848F958FA68FB78F8F89988D1F
:10453000828F938F8F89988DA98DBA8DA48BB58B1F
:104540008C818F778C83111103C08C818F7E8C833B
:10455000812FDF91CF911F910C94071C80E0DF9198
:10456000CF911F9108950F931F93CF93DF93EC0189
:1045700080E2689FF0011124E85CF54D6A8B809120
:104580000A2890910B28A0910C28B0910D288E87B5
:104590009F87A88BB98B0489158930E020E09801AA
:1045A000112700270F8B188F298F3A8F828D938DBB
:1045B000B0E0A0E0AC01BD01402B512B622B732B6E
:1045C0004F8B588F698F7A8F83858871A9F4848D7A
:1045D000958DA68DB78D8B8B9C8BAD8BBE8B81E023
:1045E0008D8381E08C831E821F82188619861A862D
:1045F0001B861C861D8603C0803131F080E0DF9170
:10460000CF911F910F9108959E012D5E3F4F8B8D8D
:104610009C8D0E94C81E882389F384E0E1CFAF926D
:10462000BF92CF92DF92EF92FF920F931F93CF939F
:10463000DF93CDB7DEB72B97CDBFDEBF6C01FE0198
:104640003196CE010C967F0120E22193E817F907FD
:10465000E1F7DA0120E037E09D91B92E992391F13D
:104660009E32A1F43A3079F480E02B96CDBFDEBFC4
:10467000DF91CF911F910F91FF90EF90DF90CF903E
:10468000BF90AF90089528E03AE0E6CFEAE9F3E181
:104690008491882321F031969813FACFE5CF321711
:1046A00018F38FED890F8E35F8F68FE9890F8A316F
:1046B00018F440EEB42EB90EF701E20FF11DB082EE
:1046C0002F5FCACF8981803279F28B01FB01838D04
:1046D000948DF601838F948FFB01168217821086CA
:1046E00011861286138614861586F80182859385B5
:1046F000A485B5854389548965897689841795078A
:10470000A607B70708F0B0CF25E0B695A79597950F
:1047100087952A95D1F7F82FFF70AF2EF801858184
:10472000823008F4A1CFC8010E941B2297FD9CCFC4
:10473000F80182859385A485B5854F96A11DB11D8D
:1047400082879387A487B587F0E2AF9EB0011124DA
:10475000685C754D6115710509F486CFFB01808198
:104760008823F1F0853E19F4B1102FC01BC04BE037
:1047700050E0C7010E94D737892B09F0B6CF6A2DC8
:10478000C6012B96CDBFDEBFDF91CF911F910F9158
:10479000FF90EF90DF90CF90BF90AF900C94B3223A
:1047A000B11062CFF601A28A80910A2890910B285D
:1047B000A0910C28B0910D2886879787A08BB18B8C
:1047C000FB018081882309F44FCFBB24B3948DCFA4
:1047D000CF92DF92EF92FF920F931F93CF93DF93CD
:1047E000CDB7DEB7C756D109CDBFDEBF8C017B0187
:1047F000DB015996CD90DC90F6018581823008F47A
:1048000096C082859385A485B5858F719927AA273F
:10481000BB27892B8A2B8B2B09F089C040E250E003
:10482000BE016F5F7F4FC6010E941421803209F0E4
:104830007EC08981882309F47AC0853E79F38E325F
:1048400069F38C8583FDEACF22961EAE1FAE2297B8
:104850008EEF90EB8EAF9FAF24961FAE2497BE01D4
:104860006F5F7F4FE0E080E02EE2DB019D91BD01B4
:104870009032A1F0883049F44BE550E04C0F5D1FB9
:104880004E0F511DDA012C93EF5F4BE550E04C0FBA
:104890005D1F4E0F511DDA019C93EF5F8F5F8B30D0
:1048A00021F78BE590E08C0F9D1F8E0F911DFC0171
:1048B0001082D70159966D917C91AE01455A5F4F98
:1048C000CE01CE960E940F238823F1F0BE01625CD8
:1048D0007F4FCE0181960E944B0DAE01455A5F4F2E
:1048E000BE016F5D7F4FC8010E949E18C801C95963
:1048F000DF4FCDBFDEBFDF91CF911F910F91FF90B2
:10490000EF90DF90CF900895F8011282138288EE25
:1049100093E0A0E0B0E084839583A683B78388E228
:1049200091EB80839183118E128E1486DFCFD80194
:1049300012961D921C92139788EE93E0A0E0B0E0CF
:10494000F801E9CFFF920F931F93CF93DF93EC0110
:104950008D81813041F090E080E0DF91CF911F9117
:104960000F91FF9008958C8181FFF5CF82FD1BC0D0
:104970000091332A1091342AC8010E944D1A0E94D6
:10498000480EF82EC8010E94160F8FEFF812E3CFE1
:104990008C8185FF1BC060E0CE010E946D228C815E
:1049A0008F7D8C83D8CF4B895C896D897E898A8580
:1049B0009B85AC85BD8584179507A607B707C1F20F
:1049C000CE010E94861F8111D3CFC5CF40913528DB
:1049D000509136286091372870913828452B462B06
:1049E000472B21F080E00E94E31BB5CF80618C83D0
:1049F0002A853B85317080E092E0821B930BADCF1E
:104A0000CF93DF93EC0161E00E946D22882311F0C7
:104A10001D8281E0DF91CF9108952F923F924F92B6
:104A20005F926F927F928F929F92AF92BF92CF923E
:104A3000DF92EF92FF920F931F93CF93DF93CDB747
:104A4000DEB7C456D109CDBFDEBF6C014B0118A241
:104A500019A28EEF90EB8E8F9F8F1BA21B821C8260
:104A600089839A831E825E018EE1A80EB11CC50166
:104A70000E94321F8401FE0131967F0135012F0112
:104A80006FE270E0C8010E94ED37009709F459C049
:104A9000F80120812F3269F40F5F1F4F9E2D8F2D5B
:104AA0007301692E782E962D872D3701E92EF82E69
:104AB000E7CF801B8D3008F08CE0282E312CA1012F
:104AC000B801CE01885A9F4F0E940838E8E5F0E00F
:104AD000EC0FFD1FE20DF31D1082C7010E9400259F
:104AE000F70185818823F1F01DAE1EAE8EEF90EBAD
:104AF0008BAF9CAF21961FAE219710E000E0080D10
:104B0000191DF8018081811124C0BE01655C7F4FB1
:104B1000C2010E944B0D4CE851EBB201C6010E944C
:104B20009E1835C0AE01485A5F4FB301C7010E94BD
:104B30000F238823C9F2020D131DC3010E94002513
:104B4000B2CF08191909B301CE01CB960E944B0DC3
:104B5000D6CF18A219A28EEF90EB8E8F9F8F1BA23B
:104B600021968FAD219781112AC0F60112821382FE
:104B700088EE93E0A0E0B0E084839583A683B783BA
:104B800088E291EB80839183118E128E1486C60188
:104B9000CC59DF4FCDBFDEBFDF91CF911F910F9179
:104BA000FF90EF90DF90CF90BF90AF909F908F904D
:104BB0007F906F905F904F903F902F900895A80145
:104BC000BE01655C7F4FC5010E940F23882369F2F7
:104BD000CE01CB960E940025B501C2010E944B0D6B
:104BE000A8019BCFCF93DF93EC01898D9A8D00971D
:104BF00041F00E940025898D9A8D0E948936198E78
:104C00001A8EDF91CF910895CF93DF93CDB7DEB7A2
:104C10006B97CDBFDEBFBC01CE0101960E940D2572
:104C2000CE0101960E949C0D882389F0BE016F5F22
:104C30007F4F8EE69DE20E94DA1270E060E08CE326
:104C400092E20E94AF11CE0101960E94F2256B966E
:104C5000CDBFDEBFDF91CF910895FC01818D928D94
:104C6000009719F061E00C946D2208952F923F9205
:104C70004F925F926F927F928F929F92AF92BF926C
:104C8000CF92DF92EF92FF920F931F93CF93DF9318
:104C9000CDB7DEB72597CDBFDEBF7C015B01342EDB
:104CA0005D83DC0115968C911597813009F0CEC09B
:104CB00014962C9021FECAC022FCB4C0C32CDD8007
:104CC00022947FE027222094B22DB1702B2ED701A1
:104CD0001A964D915D916D917C911D97C114D104EF
:104CE00009F428C15B968D919C915C97FC017480BE
:104CF0007A948A019B0169E0369527951795079567
:104D00006A95D1F770228A011170711020C00115C7
:104D10001105E9F416964D915D916D917C9119976D
:104D2000411551056105710509F099C057968D919E
:104D30009D910D90BC91A02D0097A105B10509F0A2
:104D4000B0C0C7010E941A20882309F47FC080E008
:104D500092E0801B910B46018C159D0508F44C01D7
:104D6000D7015B964D915C915C9716968D919D91C4
:104D70000D90BC91A02D0297A109B109FA012585DA
:104D800004C0880F991FAA1FBB1F2A95D2F746851A
:104D9000578560897189840F951FA61FB71F9C01D5
:104DA000AD01270D311D411D511D29013A0181140D
:104DB00032E0930609F07BC080910A2890910B287D
:104DC000A0910C28B0910D2884159505A605B7056E
:104DD00059F48FEF9FEFDC0180930A2890930B2802
:104DE000A0930C28B0930D28022D9501B301A201C8
:104DF0008091332A9091342A0E94751B882331F1C7
:104E00009EEFB91AC818D908F70182859385A48541
:104E1000B585880D991DA11DB11D82879387A48733
:104E2000B58755CFF701438954896589768982858D
:104E30009385A485B585481759076A077B0709F448
:104E40003DCFC7010E94861F811138CF81E090E0DD
:104E5000D70112968D939C93139780E007C09E0113
:104E60002F5F3F4F0E94471E811102C090E079C022
:104E700089819A81AB81BC81F701238D348DF90141
:104E8000278948EF5FEF60E070E0203121F048EFC4
:104E90005FEF6FEF7FE084179507A607B70708F06D
:104EA00050CFF70186839783A087B18750CF011534
:104EB000110599F5D7011A964D915D916D917C91EF
:104EC0001D9753968D919D910D90BC91A02D4817E3
:104ED00059076A077B0708F181E00E94071C8823B5
:104EE00009F4B4CF40920A2850920B2860920C2803
:104EF00070920D288091372A81608093372AC801EB
:104F0000885C954DD5019C01280D391DFC012E179B
:104F10003F0759F04D914193FACF41E0C301B201EF
:104F20000E94321C8111EBCF91CF281B390BA20EAE
:104F3000B31E68CFF70183899489A589B689841740
:104F40009507A607B70738F48481438B548B658B8C
:104F5000768B80688483F701848183FD18C0832D5C
:104F60009D812596CDBFDEBFDF91CF911F910F911F
:104F7000FF90EF90DF90CF90BF90AF909F908F9079
:104F80007F906F905F904F903F902F90089561E0D9
:104F9000C7010E946D22882309F458CFE0CFCF9338
:104FA000DF931F92CDB7DEB7698341E050E0BE01C9
:104FB0006F5F7F4F0E9436260F90DF91CF9108954B
:104FC000CF93DF93EC01E98DFA8D309749F481E0BE
:104FD00090E08A839B8390E080E0DF91CF910895F9
:104FE00012821382898D9A8D0E943626E98DFA8D60
:104FF00022813381232B59F7F0CF1F920F920FB6E6
:105000000F9211242F933F934F935F936F937F934E
:105010008F939F93AF93BF93EF93FF9385E00E948D
:105020003B0AFF91EF91BF91AF919F918F917F913B
:105030006F915F914F913F912F910F900FBE0F9005
:105040001F9018951F920F920FB60F9211242F9355
:105050003F934F935F936F937F938F939F93AF9300
:10506000BF93EF93FF9384E00E943B0AFF91EF917F
:10507000BF91AF919F918F917F916F915F914F9170
:105080003F912F910F900FBE0F901F9018951F9278
:105090000F920FB60F9211242F933F934F935F936C
:1050A0006F937F938F939F93AF93BF93EF93FF93F0
:1050B00083E00E943B0AFF91EF91BF91AF919F91D6
:1050C0008F917F916F915F914F913F912F910F90B1
:1050D0000FBE0F901F9018951F920F920FB60F9250
:1050E00011242F933F934F935F936F937F938F93ED
:1050F0009F93AF93BF93EF93FF9382E00E943B0A8D
:10510000FF91EF91BF91AF919F918F917F916F919F
:105110005F914F913F912F910F900FBE0F901F9075
:1051200018951F920F920FB60F9211242F933F9351
:105130004F935F936F937F938F939F93AF93BF939F
:10514000EF93FF9381E00E943B0AFF91EF91BF91A3
:10515000AF919F918F917F916F915F914F913F910F
:105160002F910F900FBE0F901F9018951F920F92C6
:105170000FB60F9211242F933F934F935F936F932A
:105180007F938F939F93AF93BF93EF93FF9380E0B1
:105190000E943B0AFF91EF91BF91AF919F918F9138
:1051A0007F916F915F914F913F912F910F900FBE23
:1051B0000F901F9018951F920F920FB60F92112407
:1051C0002F933F934F935F936F937F938F939F930F
:1051D000AF93BF93EF93FF9388E39CE20E94CA0AC8
:1051E000FF91EF91BF91AF919F918F917F916F91BF
:1051F0005F914F913F912F910F900FBE0F901F9095
:1052000018951F920F920FB60F9211242F933F9370
:105210004F935F936F937F938F939F93AF93BF93BE
:10522000EF93FF93E091442CF091452C818181FD17
:105230002FC0608180914A2C8F5F8F7390914B2C8F
:10524000891741F0E0914A2CF0E0E85CF34D618F62
:1052500080934A2C8091D12C9091D22C009739F0D8
:10526000DC01ED91FC910190F081E02D0995FF9119
:10527000EF91BF91AF919F918F917F916F915F91CE
:105280004F913F912F910F900FBE0F901F90189547
:105290008081EDCF1F920F920FB60F9211242F93A2
:1052A0003F934F935F936F937F938F939F93AF93AE
:1052B000BF9340913B2850913C2860913D287091CC
:1052C0003E288091392890913A28209145283091A4
:1052D0004628420F531F611D711D209143283091B4
:1052E0004428820F931F883E23E0920730F0885EA7
:1052F00093404F5F5F4F6F4F7F4F8093392890935C
:105300003A2840933B2850933C2860933D28709363
:105310003E2880913F2890914028A0914128B0914B
:1053200042280196A11DB11D80933F2890934028EB
:10533000A0934128B093422881E08093B60ABF91A0
:10534000AF919F918F917F916F915F914F913F911D
:105350002F910F900FBE0F901F90189520918D2DBB
:1053600030918E2D8217930758F4E091892DF0919A
:105370008A2DE80FF91F80938D2D90938E2D10822A
:105380000895CF92DF92EF92FF920F931F93CF93E6
:10539000DF93E8E3FCE21282138288EEC82E83E0FA
:1053A000D82EE12CF12CC482D582E682F78284EEDD
:1053B00090EB8083918380E698E08487958788E1ED
:1053C000868789E1878780E4808B128A138A148A12
:1053D000158A86E2868B178A108E1092D12C109235
:1053E000D22CE3EDFCE240E059E06DE370E0408355
:1053F0005183628373831482158281E090E08683F7
:105400009783EBEDFCE2158216821186138602E08B
:1054100010E020E030E0048715872687378713A245
:1054200014A615A62EEF30EB22A733A717A6E6E6A3
:10543000FDE24083518362837383148215828683E5
:105440009783E4E2FDE28AE091EB80839183178207
:1054500082E086838CE082838DE084838BE083838B
:1054600088E08583EFE8FDE212821382C482D58250
:10547000E682F782C8E2D1EBC083D183118E128E0F
:10548000148668E371EB89E89DE20E947F18EEE6DE
:10549000FDE212821382C482D582E682F782C08343
:1054A000D183118E128E1486DF91CF911F910F91AF
:1054B000FF90EF90DF90CF900895CF93DF93CDB71B
:1054C000DEB7CA58D109CDBFDEBF88ED90E084BFFA
:1054D0009093610080E094E2A4EFB0E08093002814
:1054E00090930128A0930228B0930328809102068C
:1054F000866080930206809100068160809300069A
:10550000809102068F7C809302068091A0008F78A4
:105510008093A00080910206806180930206109221
:10552000E20581E08093E40583E08093010A8FEF38
:1055300090E08093260A9093270A80E890E0809379
:10554000380A9093390A80933A0A90933B0A8093E1
:105550003C0A90933D0A8BE08093000A8091E50518
:1055600081608093E5058091E50582608093E50583
:10557000E0E8FAE037E02FEF90E885E03183248718
:10558000958780837096E03C4AE0F407B9F780E0A5
:1055900094E08093492890934A28809149289091DB
:1055A0004A282FEF30E0B9010E9461356093472807
:1055B000709348288091492890914A28E8EEF3E0BA
:1055C000BF010E9461356093452870934628809101
:1055D000492890914A28BF010E9461358093432851
:1055E000909344282093BC0A3093BD0A8091B50A59
:1055F00081608093B50A94E09093B00A8091B00ADC
:1056000081608093B00A789482E08093352A21E00B
:1056100020930C2990930B29299A84B962E070E0B9
:1056200080E10E949F0B61E070E081E10E949F0B8E
:1056300061E070E084E10E949F0B40E052EC61E089
:1056400070E088E39CE20E941C1380E091E080936C
:10565000102A9093112A6EE571E080E090E00E949C
:105660000F0D62E070E08EE00E949F0B0E94D80F49
:1056700081EE9FE08093DF289093E02810927F28AE
:105680001092802880917204887F809372048091A8
:1056900072048360809372040E94911380E490E00E
:1056A0008C0F9D1F0C96C757DF4F88839983C9586D
:1056B000D0405BE5E52EF12CEC0EFD1E9CE0E90EE2
:1056C000F11C68EE462E63E0562E612C712CFE0113
:1056D000EE57FF4FCB57DF4FE883F983C558D040D3
:1056E0000E941F118C018F3F980739F41092322AC3
:1056F0001092312A1092302A1EC08F3F9F4F0CF417
:1057000096C48091312A811109C0073011050CF02F
:105710003FC40115110511F00093302A8091302A01
:10572000833009F43AC208F067C0813009F470C0D0
:10573000823009F4C0C180912F2A811178C481E19F
:105740000E94351008E010E080E10E94400C110F2B
:10575000182B84E10E9435100150B1F71F3F89F0EA
:105760001D3B09F05AC40E946E138FE297E08093AC
:105770000E2A90930F2A70E060E081E09AE00E9488
:10578000AF116EE070E080E090E00E940F0D0E948B
:10579000CA15382E3FEF831709F43CC5E0E4E8272B
:1057A0008FE38E0F8C3050F41E2F1F7039F00E9443
:1057B0006E13113009F043C40E945B1510E4832D71
:1057C00081279FE3980F9C3010F48F7039F40E946A
:1057D0001B11832D0E94B8100E9418114FEF341630
:1057E00009F418C56FE070E080E090E00E940F0DB2
:1057F0000E94CA15382EE3CF853009F4C3C208F4DD
:10580000ACC2863009F097CF81E080932F2A72CF07
:105810001092302A6F961EAE1FAE6F97A3964CAEB5
:105820005DAE6EAE7FAEA39788E291EB6D968EAFC4
:105830009FAF6D97E6961EAE1FAEE697A8961FAE79
:10584000A8978091A6B19091A7B1A091A8B1CE5789
:10585000DF4F88839983AA83C258D04010E0C12CBF
:105860003324339432E0B32E43E0A42EC1103AC067
:105870008091122A882331F08FE89DE20E949C0DCE
:10588000811130C0DD24D394D10EE1E0F0E0EC0FC3
:10589000FD1FE10FF11DA0826EE871EB0CE0CC243E
:1058A000C39411E01D0DE1E0F0E0EC0FFD1FED0DE4
:1058B000F11D008381E090E08C0F9D1F810F911DF1
:1058C0000E940138010F11E0100FE1E0F0E0EC0F51
:1058D000FD1FE00FF11D1082CE01855A9F4F0E94DF
:1058E000F225C4CF8091212A882329F18091132A9F
:1058F000882309F11092132ACB57DF4FE881F981F1
:10590000C558D04001900020E9F731970E2FCB57B2
:10591000DF4F3881C558D040031BDD24D394D10E0E
:10592000E1E0F0E0EC0FFD1FE10FF11DB082BE01E0
:105930006E577F4FB6CF103330F1CE01855A9F4F4F
:105940000E94F22500E00E941B11802F0E94B810D7
:1059500066E0812F0E947A10CE0101966C018C01C5
:10596000015C1F4F68E0F60181916F010E947A107F
:10597000C016D106B9F785B19091352A892B85B922
:105980000E941811D8CE8091122A8823A9F08FE89E
:105990009DE20E949C0D882379F06FE87DE2CE01A4
:1059A000805C9F4F0E94E823BE01605C7F4FCE0168
:1059B000855A9F4F0E94DA128091122A882309F497
:1059C000E5C58FE89DE20E949C0D882309F4DEC5A1
:1059D000CE01855A9F4F0E949C0D882309F4C5C5AE
:1059E000F70101900020E9F731970E2F0E19E69686
:1059F000EEADFFADE697309779F08581823060F0AB
:105A0000DD24D394D10EE1E0F0E0EC0FFD1FE10FB7
:105A1000F11DB082B70145CFB701CE0184589F4F29
:105A20000E947F186BE971EBCE01805C9F4F0E9452
:105A30007F18BE01605C7F4FCE0184589F4F0E944B
:105A4000FF14D82E811115C060EA71EBCE018A587F
:105A50009F4F0E947F18BE016A587F4FCE01845825
:105A60009F4F0E94FF14D82ECE018A589F4F0E944C
:105A70009418CE01805C9F4F0E949418DD2081F025
:105A8000DD24D394D10EE1E0F0E0EC0FFD1FE10F37
:105A9000F11D3082CE0184589F4F0E949418BACFD6
:105AA000CE01855A9F4F0E94F225CE0184589F4F08
:105AB0000E949418DBCE81E08093312AC801809740
:105AC0008F35910560F4E0910828F0910928CF0105
:105AD0000196809308289093092800832CCE012BEF
